{"contracts/identiFi.sol":{"IdentiFi":{"abi":[{"inputs":[{"internalType":"string","name":"username","type":"string"},{"internalType":"uint256","name":"jobId","type":"uint256"}],"name":"addJob","outputs":[],"stateMutability":"nonpayable","type":"function"},{"inputs":[{"internalType":"string","name":"username","type":"string"},{"components":[{"internalType":"string","name":"firstName","type":"string"},{"internalType":"string","name":"lastName","type":"string"},{"internalType":"string","name":"email","type":"string"},{"internalType":"string","name":"homeAddress","type":"string"},{"internalType":"string","name":"dateOfBirth","type":"string"},{"internalType":"string","name":"phoneNumber","type":"string"}],"internalType":"struct IdentiFi.BasicInfo","name":"basicInfo","type":"tuple"},{"components":[{"internalType":"string","name":"education","type":"string"},{"internalType":"string","name":"workHistory","type":"string"},{"internalType":"string","name":"jobTitle","type":"string"},{"internalType":"string","name":"info","type":"string"},{"internalType":"string[]","name":"skills","type":"string[]"},{"internalType":"string","name":"imageURL","type":"string"}],"internalType":"struct IdentiFi.ProfessionalInfo","name":"professionalInfo","type":"tuple"},{"components":[{"internalType":"string","name":"x","type":"string"},{"internalType":"string","name":"instagram","type":"string"},{"internalType":"string","name":"tiktok","type":"string"},{"internalType":"string","name":"youtube","type":"string"},{"internalType":"string","name":"linkedin","type":"string"}],"internalType":"struct IdentiFi.SocialLinks","name":"socialLinks","type":"tuple"},{"components":[{"internalType":"bool","name":"education","type":"bool"},{"internalType":"bool","name":"workHistory","type":"bool"},{"internalType":"bool","name":"phoneNumber","type":"bool"},{"internalType":"bool","name":"homeAddress","type":"bool"},{"internalType":"bool","name":"dateOfBirth","type":"bool"}],"internalType":"struct IdentiFi.Visibility","name":"visibility","type":"tuple"}],"name":"createUser","outputs":[],"stateMutability":"nonpayable","type":"function"},{"inputs":[{"internalType":"string","name":"username","type":"string"},{"components":[{"internalType":"string","name":"firstName","type":"string"},{"internalType":"string","name":"lastName","type":"string"},{"internalType":"string","name":"email","type":"string"},{"internalType":"string","name":"homeAddress","type":"string"},{"internalType":"string","name":"dateOfBirth","type":"string"},{"internalType":"string","name":"phoneNumber","type":"string"}],"internalType":"struct IdentiFi.BasicInfo","name":"basicInfo","type":"tuple"},{"components":[{"internalType":"string","name":"education","type":"string"},{"internalType":"string","name":"workHistory","type":"string"},{"internalType":"string","name":"jobTitle","type":"string"},{"internalType":"string","name":"info","type":"string"},{"internalType":"string[]","name":"skills","type":"string[]"},{"internalType":"string","name":"imageURL","type":"string"}],"internalType":"struct IdentiFi.ProfessionalInfo","name":"professionalInfo","type":"tuple"},{"components":[{"internalType":"string","name":"x","type":"string"},{"internalType":"string","name":"instagram","type":"string"},{"internalType":"string","name":"tiktok","type":"string"},{"internalType":"string","name":"youtube","type":"string"},{"internalType":"string","name":"linkedin","type":"string"}],"internalType":"struct IdentiFi.SocialLinks","name":"socialLinks","type":"tuple"},{"components":[{"internalType":"bool","name":"education","type":"bool"},{"internalType":"bool","name":"workHistory","type":"bool"},{"internalType":"bool","name":"phoneNumber","type":"bool"},{"internalType":"bool","name":"homeAddress","type":"bool"},{"internalType":"bool","name":"dateOfBirth","type":"bool"}],"internalType":"struct IdentiFi.Visibility","name":"visibility","type":"tuple"}],"name":"editUser","outputs":[],"stateMutability":"nonpayable","type":"function"},{"inputs":[{"internalType":"string","name":"username","type":"string"}],"name":"getJobs","outputs":[{"internalType":"uint256[]","name":"","type":"uint256[]"}],"stateMutability":"view","type":"function"},{"inputs":[{"internalType":"address","name":"userAddress","type":"address"}],"name":"getUserByAddress","outputs":[{"components":[{"internalType":"string","name":"firstName","type":"string"},{"internalType":"string","name":"lastName","type":"string"},{"internalType":"string","name":"email","type":"string"},{"internalType":"string","name":"homeAddress","type":"string"},{"internalType":"string","name":"dateOfBirth","type":"string"},{"internalType":"string","name":"phoneNumber","type":"string"}],"internalType":"struct IdentiFi.BasicInfo","name":"basicInfo","type":"tuple"},{"components":[{"internalType":"string","name":"education","type":"string"},{"internalType":"string","name":"workHistory","type":"string"},{"internalType":"string","name":"jobTitle","type":"string"},{"internalType":"string","name":"info","type":"string"},{"internalType":"string[]","name":"skills","type":"string[]"},{"internalType":"string","name":"imageURL","type":"string"}],"internalType":"struct IdentiFi.ProfessionalInfo","name":"professionalInfo","type":"tuple"},{"components":[{"internalType":"string","name":"x","type":"string"},{"internalType":"string","name":"instagram","type":"string"},{"internalType":"string","name":"tiktok","type":"string"},{"internalType":"string","name":"youtube","type":"string"},{"internalType":"string","name":"linkedin","type":"string"}],"internalType":"struct IdentiFi.SocialLinks","name":"socialLinks","type":"tuple"},{"components":[{"internalType":"bool","name":"education","type":"bool"},{"internalType":"bool","name":"workHistory","type":"bool"},{"internalType":"bool","name":"phoneNumber","type":"bool"},{"internalType":"bool","name":"homeAddress","type":"bool"},{"internalType":"bool","name":"dateOfBirth","type":"bool"}],"internalType":"struct IdentiFi.Visibility","name":"visibility","type":"tuple"}],"stateMutability":"view","type":"function"},{"inputs":[{"internalType":"string","name":"username","type":"string"}],"name":"getUserByUsername","outputs":[{"components":[{"internalType":"string","name":"firstName","type":"string"},{"internalType":"string","name":"lastName","type":"string"},{"internalType":"string","name":"email","type":"string"},{"internalType":"string","name":"homeAddress","type":"string"},{"internalType":"string","name":"dateOfBirth","type":"string"},{"internalType":"string","name":"phoneNumber","type":"string"}],"internalType":"struct IdentiFi.BasicInfo","name":"basicInfo","type":"tuple"},{"components":[{"internalType":"string","name":"education","type":"string"},{"internalType":"string","name":"workHistory","type":"string"},{"internalType":"string","name":"jobTitle","type":"string"},{"internalType":"string","name":"info","type":"string"},{"internalType":"string[]","name":"skills","type":"string[]"},{"internalType":"string","name":"imageURL","type":"string"}],"internalType":"struct IdentiFi.ProfessionalInfo","name":"professionalInfo","type":"tuple"},{"components":[{"internalType":"string","name":"x","type":"string"},{"internalType":"string","name":"instagram","type":"string"},{"internalType":"string","name":"tiktok","type":"string"},{"internalType":"string","name":"youtube","type":"string"},{"internalType":"string","name":"linkedin","type":"string"}],"internalType":"struct IdentiFi.SocialLinks","name":"socialLinks","type":"tuple"},{"components":[{"internalType":"bool","name":"education","type":"bool"},{"internalType":"bool","name":"workHistory","type":"bool"},{"internalType":"bool","name":"phoneNumber","type":"bool"},{"internalType":"bool","name":"homeAddress","type":"bool"},{"internalType":"bool","name":"dateOfBirth","type":"bool"}],"internalType":"struct IdentiFi.Visibility","name":"visibility","type":"tuple"}],"stateMutability":"view","type":"function"},{"inputs":[{"internalType":"string","name":"username","type":"string"}],"name":"getVisibility","outputs":[{"components":[{"internalType":"bool","name":"education","type":"bool"},{"internalType":"bool","name":"workHistory","type":"bool"},{"internalType":"bool","name":"phoneNumber","type":"bool"},{"internalType":"bool","name":"homeAddress","type":"bool"},{"internalType":"bool","name":"dateOfBirth","type":"bool"}],"internalType":"struct IdentiFi.Visibility","name":"","type":"tuple"}],"stateMutability":"view","type":"function"},{"inputs":[{"internalType":"string","name":"username","type":"string"},{"internalType":"bool","name":"education","type":"bool"},{"internalType":"bool","name":"workHistory","type":"bool"},{"internalType":"bool","name":"phoneNumber","type":"bool"},{"internalType":"bool","name":"homeAddress","type":"bool"},{"internalType":"bool","name":"dateOfBirth","type":"bool"}],"name":"setVisibility","outputs":[],"stateMutability":"nonpayable","type":"function"}],"evm":{"bytecode":{"linkReferences":{},"object":"608060405234801561001057600080fd5b50612d07806100206000396000f3fe608060405234801561001057600080fd5b50600436106100885760003560e01c80639f42af631161005b5780639f42af631461013c578063bb6228b01461016f578063d1577cac1461018b578063f86a29c7146101a757610088565b8063320ba8f71461008d57806349110a6b146100bd5780634cb51da7146100d957806369c212f614610109575b600080fd5b6100a760048036038101906100a29190611b68565b6101c3565b6040516100b49190611c34565b60405180910390f35b6100d760048036038101906100d29190611c85565b6102f3565b005b6100f360048036038101906100ee9190611b68565b6103ad565b6040516101009190611d9f565b60405180910390f35b610123600480360381019061011e9190611e1f565b610494565b6040516101339493929190612177565b60405180910390f35b61015660048036038101906101519190611b68565b610599565b6040516101669493929190612177565b60405180910390f35b61018960048036038101906101849190612722565b611102565b005b6101a560048036038101906101a0919061280e565b611471565b005b6101c160048036038101906101bc9190612722565b6115a4565b005b6101cb611860565b6000826040516101db91906128f3565b908152602001604051809103902060120160009054906101000a900460ff16610239576040517f08c379a000000000000000000000000000000000000000000000000000000000815260040161023090612967565b60405180910390fd5b60008260405161024991906128f3565b90815260200160405180910390206014016040518060a00160405290816000820160009054906101000a900460ff161515151581526020016000820160019054906101000a900460ff161515151581526020016000820160029054906101000a900460ff161515151581526020016000820160039054906101000a900460ff161515151581526020016000820160049054906101000a900460ff1615151515815250509050919050565b60008260405161030391906128f3565b908152602001604051809103902060120160009054906101000a900460ff16610361576040517f08c379a000000000000000000000000000000000000000000000000000000000815260040161035890612967565b60405180910390fd5b60008260405161037191906128f3565b90815260200160405180910390206013018190806001815401808255809150506001900390600052602060002001600090919091909150555050565b60606000826040516103bf91906128f3565b908152602001604051809103902060120160009054906101000a900460ff1661041d576040517f08c379a000000000000000000000000000000000000000000000000000000000815260040161041490612967565b60405180910390fd5b60008260405161042d91906128f3565b908152602001604051809103902060130180548060200260200160405190810160405280929190818152602001828054801561048857602002820191906000526020600020905b815481526020019060010190808311610474575b50505050509050919050565b61049c611899565b6104a46118cf565b6104ac611905565b6104b4611860565b6000600160008773ffffffffffffffffffffffffffffffffffffffff1673ffffffffffffffffffffffffffffffffffffffff1681526020019081526020016000208054610500906129b6565b80601f016020809104026020016040519081016040528092919081815260200182805461052c906129b6565b80156105795780601f1061054e57610100808354040283529160200191610579565b820191906000526020600020905b81548152906001019060200180831161055c57829003601f168201915b5050505050905061058981610599565b9450945094509450509193509193565b6105a1611899565b6105a96118cf565b6105b1611905565b6105b9611860565b6000856040516105c991906128f3565b908152602001604051809103902060120160009054906101000a900460ff16610627576040517f08c379a000000000000000000000000000000000000000000000000000000000815260040161061e90612967565b60405180910390fd5b6000808660405161063891906128f3565b908152602001604051809103902090506040518060c00160405280826000018054610662906129b6565b80601f016020809104026020016040519081016040528092919081815260200182805461068e906129b6565b80156106db5780601f106106b0576101008083540402835291602001916106db565b820191906000526020600020905b8154815290600101906020018083116106be57829003601f168201915b505050505081526020018260010180546106f4906129b6565b80601f0160208091040260200160405190810160405280929190818152602001828054610720906129b6565b801561076d5780601f106107425761010080835404028352916020019161076d565b820191906000526020600020905b81548152906001019060200180831161075057829003601f168201915b50505050508152602001826003018054610786906129b6565b80601f01602080910402602001604051908101604052809291908181526020018280546107b2906129b6565b80156107ff5780601f106107d4576101008083540402835291602001916107ff565b820191906000526020600020905b8154815290600101906020018083116107e257829003601f168201915b50505050508152602001826004018054610818906129b6565b80601f0160208091040260200160405190810160405280929190818152602001828054610844906129b6565b80156108915780601f1061086657610100808354040283529160200191610891565b820191906000526020600020905b81548152906001019060200180831161087457829003601f168201915b505050505081526020018260050180546108aa906129b6565b80601f01602080910402602001604051908101604052809291908181526020018280546108d6906129b6565b80156109235780601f106108f857610100808354040283529160200191610923565b820191906000526020600020905b81548152906001019060200180831161090657829003601f168201915b5050505050815260200182600801805461093c906129b6565b80601f0160208091040260200160405190810160405280929190818152602001828054610968906129b6565b80156109b55780601f1061098a576101008083540402835291602001916109b5565b820191906000526020600020905b81548152906001019060200180831161099857829003601f168201915b505050505081525094506040518060c001604052808260060180546109d9906129b6565b80601f0160208091040260200160405190810160405280929190818152602001828054610a05906129b6565b8015610a525780601f10610a2757610100808354040283529160200191610a52565b820191906000526020600020905b815481529060010190602001808311610a3557829003601f168201915b50505050508152602001826007018054610a6b906129b6565b80601f0160208091040260200160405190810160405280929190818152602001828054610a97906129b6565b8015610ae45780601f10610ab957610100808354040283529160200191610ae4565b820191906000526020600020905b815481529060010190602001808311610ac757829003601f168201915b50505050508152602001826009018054610afd906129b6565b80601f0160208091040260200160405190810160405280929190818152602001828054610b29906129b6565b8015610b765780601f10610b4b57610100808354040283529160200191610b76565b820191906000526020600020905b815481529060010190602001808311610b5957829003601f168201915b5050505050815260200182600f018054610b8f906129b6565b80601f0160208091040260200160405190810160405280929190818152602001828054610bbb906129b6565b8015610c085780601f10610bdd57610100808354040283529160200191610c08565b820191906000526020600020905b815481529060010190602001808311610beb57829003601f168201915b5050505050815260200182601001805480602002602001604051908101604052809291908181526020016000905b82821015610ce2578382906000526020600020018054610c55906129b6565b80601f0160208091040260200160405190810160405280929190818152602001828054610c81906129b6565b8015610cce5780601f10610ca357610100808354040283529160200191610cce565b820191906000526020600020905b815481529060010190602001808311610cb157829003601f168201915b505050505081526020019060010190610c36565b505050508152602001826011018054610cfa906129b6565b80601f0160208091040260200160405190810160405280929190818152602001828054610d26906129b6565b8015610d735780601f10610d4857610100808354040283529160200191610d73565b820191906000526020600020905b815481529060010190602001808311610d5657829003601f168201915b505050505081525093506040518060a0016040528082600a018054610d97906129b6565b80601f0160208091040260200160405190810160405280929190818152602001828054610dc3906129b6565b8015610e105780601f10610de557610100808354040283529160200191610e10565b820191906000526020600020905b815481529060010190602001808311610df357829003601f168201915b5050505050815260200182600b018054610e29906129b6565b80601f0160208091040260200160405190810160405280929190818152602001828054610e55906129b6565b8015610ea25780601f10610e7757610100808354040283529160200191610ea2565b820191906000526020600020905b815481529060010190602001808311610e8557829003601f168201915b5050505050815260200182600c018054610ebb906129b6565b80601f0160208091040260200160405190810160405280929190818152602001828054610ee7906129b6565b8015610f345780601f10610f0957610100808354040283529160200191610f34565b820191906000526020600020905b815481529060010190602001808311610f1757829003601f168201915b5050505050815260200182600d018054610f4d906129b6565b80601f0160208091040260200160405190810160405280929190818152602001828054610f79906129b6565b8015610fc65780601f10610f9b57610100808354040283529160200191610fc6565b820191906000526020600020905b815481529060010190602001808311610fa957829003601f168201915b5050505050815260200182600e018054610fdf906129b6565b80601f016020809104026020016040519081016040528092919081815260200182805461100b906129b6565b80156110585780601f1061102d57610100808354040283529160200191611058565b820191906000526020600020905b81548152906001019060200180831161103b57829003601f168201915b50505050508152509250806014016040518060a00160405290816000820160009054906101000a900460ff161515151581526020016000820160019054906101000a900460ff161515151581526020016000820160029054906101000a900460ff161515151581526020016000820160039054906101000a900460ff161515151581526020016000820160049054906101000a900460ff1615151515815250509150509193509193565b8460028160405161111391906128f3565b908152602001604051809103902060009054906101000a900460ff161561116f576040517f08c379a000000000000000000000000000000000000000000000000000000000815260040161116690612a33565b60405180910390fd5b6000808760405161118091906128f3565b9081526020016040518091039020905085600001518160000190816111a59190612bff565b5085602001518160010190816111bb9190612bff565b50868160020190816111cd9190612bff565b5085604001518160030190816111e39190612bff565b5085606001518160040190816111f99190612bff565b50856080015181600501908161120f9190612bff565b508560a001518160080190816112259190612bff565b50846000015181600601908161123b9190612bff565b5084602001518160070190816112519190612bff565b5084604001518160090190816112679190612bff565b50836000015181600a01908161127d9190612bff565b50836020015181600b0190816112939190612bff565b50836040015181600c0190816112a99190612bff565b50836060015181600d0190816112bf9190612bff565b50836080015181600e0190816112d59190612bff565b50846060015181600f0190816112eb9190612bff565b508460800151816010019080519060200190611308929190611934565b508460a0015181601101908161131e9190612bff565b5060018160120160006101000a81548160ff021916908315150217905550828160140160008201518160000160006101000a81548160ff02191690831515021790555060208201518160000160016101000a81548160ff02191690831515021790555060408201518160000160026101000a81548160ff02191690831515021790555060608201518160000160036101000a81548160ff02191690831515021790555060808201518160000160046101000a81548160ff02191690831515021790555090505060016002886040516113f691906128f3565b908152602001604051809103902060006101000a81548160ff02191690831515021790555086600160003373ffffffffffffffffffffffffffffffffffffffff1673ffffffffffffffffffffffffffffffffffffffff16815260200190815260200160002090816114679190612bff565b5050505050505050565b60008660405161148191906128f3565b908152602001604051809103902060120160009054906101000a900460ff166114df576040517f08c379a00000000000000000000000000000000000000000000000000000000081526004016114d690612967565b60405180910390fd5b600080876040516114f091906128f3565b90815260200160405180910390209050858160140160000160006101000a81548160ff021916908315150217905550848160140160000160016101000a81548160ff021916908315150217905550838160140160000160026101000a81548160ff021916908315150217905550828160140160000160036101000a81548160ff021916908315150217905550818160140160000160046101000a81548160ff02191690831515021790555050505050505050565b6000856040516115b491906128f3565b908152602001604051809103902060120160009054906101000a900460ff16611612576040517f08c379a000000000000000000000000000000000000000000000000000000000815260040161160990612967565b60405180910390fd5b6000808660405161162391906128f3565b9081526020016040518091039020905084600001518160000190816116489190612bff565b50846020015181600101908161165e9190612bff565b5084604001518160030190816116749190612bff565b50846060015181600401908161168a9190612bff565b5084608001518160050190816116a09190612bff565b508460a001518160080190816116b69190612bff565b5083600001518160060190816116cc9190612bff565b5083602001518160070190816116e29190612bff565b5083604001518160090190816116f89190612bff565b50826000015181600a01908161170e9190612bff565b50826020015181600b0190816117249190612bff565b50826040015181600c01908161173a9190612bff565b50826060015181600d0190816117509190612bff565b50826080015181600e0190816117669190612bff565b50836060015181600f01908161177c9190612bff565b508360800151816010019080519060200190611799929190611934565b508360a001518160110190816117af9190612bff565b50818160140160008201518160000160006101000a81548160ff02191690831515021790555060208201518160000160016101000a81548160ff02191690831515021790555060408201518160000160026101000a81548160ff02191690831515021790555060608201518160000160036101000a81548160ff02191690831515021790555060808201518160000160046101000a81548160ff021916908315150217905550905050505050505050565b6040518060a001604052806000151581526020016000151581526020016000151581526020016000151581526020016000151581525090565b6040518060c001604052806060815260200160608152602001606081526020016060815260200160608152602001606081525090565b6040518060c001604052806060815260200160608152602001606081526020016060815260200160608152602001606081525090565b6040518060a0016040528060608152602001606081526020016060815260200160608152602001606081525090565b82805482825590600052602060002090810192821561197c579160200282015b8281111561197b57825182908161196b9190612bff565b5091602001919060010190611954565b5b509050611989919061198d565b5090565b5b808211156119ad57600081816119a491906119b1565b5060010161198e565b5090565b5080546119bd906129b6565b6000825580601f106119cf57506119ee565b601f0160209004906000526020600020908101906119ed91906119f1565b5b50565b5b80821115611a0a5760008160009055506001016119f2565b5090565b6000604051905090565b600080fd5b600080fd5b600080fd5b600080fd5b6000601f19601f8301169050919050565b7f4e487b7100000000000000000000000000000000000000000000000000000000600052604160045260246000fd5b611a7582611a2c565b810181811067ffffffffffffffff82111715611a9457611a93611a3d565b5b80604052505050565b6000611aa7611a0e565b9050611ab38282611a6c565b919050565b600067ffffffffffffffff821115611ad357611ad2611a3d565b5b611adc82611a2c565b9050602081019050919050565b82818337600083830152505050565b6000611b0b611b0684611ab8565b611a9d565b905082815260208101848484011115611b2757611b26611a27565b5b611b32848285611ae9565b509392505050565b600082601f830112611b4f57611b4e611a22565b5b8135611b5f848260208601611af8565b91505092915050565b600060208284031215611b7e57611b7d611a18565b5b600082013567ffffffffffffffff811115611b9c57611b9b611a1d565b5b611ba884828501611b3a565b91505092915050565b60008115159050919050565b611bc681611bb1565b82525050565b60a082016000820151611be26000850182611bbd565b506020820151611bf56020850182611bbd565b506040820151611c086040850182611bbd565b506060820151611c1b6060850182611bbd565b506080820151611c2e6080850182611bbd565b50505050565b600060a082019050611c496000830184611bcc565b92915050565b6000819050919050565b611c6281611c4f565b8114611c6d57600080fd5b50565b600081359050611c7f81611c59565b92915050565b60008060408385031215611c9c57611c9b611a18565b5b600083013567ffffffffffffffff811115611cba57611cb9611a1d565b5b611cc685828601611b3a565b9250506020611cd785828601611c70565b9150509250929050565b600081519050919050565b600082825260208201905092915050565b6000819050602082019050919050565b611d1681611c4f565b82525050565b6000611d288383611d0d565b60208301905092915050565b6000602082019050919050565b6000611d4c82611ce1565b611d568185611cec565b9350611d6183611cfd565b8060005b83811015611d92578151611d798882611d1c565b9750611d8483611d34565b925050600181019050611d65565b5085935050505092915050565b60006020820190508181036000830152611db98184611d41565b905092915050565b600073ffffffffffffffffffffffffffffffffffffffff82169050919050565b6000611dec82611dc1565b9050919050565b611dfc81611de1565b8114611e0757600080fd5b50565b600081359050611e1981611df3565b92915050565b600060208284031215611e3557611e34611a18565b5b6000611e4384828501611e0a565b91505092915050565b600081519050919050565b600082825260208201905092915050565b60005b83811015611e86578082015181840152602081019050611e6b565b60008484015250505050565b6000611e9d82611e4c565b611ea78185611e57565b9350611eb7818560208601611e68565b611ec081611a2c565b840191505092915050565b600060c0830160008301518482036000860152611ee88282611e92565b91505060208301518482036020860152611f028282611e92565b91505060408301518482036040860152611f1c8282611e92565b91505060608301518482036060860152611f368282611e92565b91505060808301518482036080860152611f508282611e92565b91505060a083015184820360a0860152611f6a8282611e92565b9150508091505092915050565b600081519050919050565b600082825260208201905092915050565b6000819050602082019050919050565b6000611faf8383611e92565b905092915050565b6000602082019050919050565b6000611fcf82611f77565b611fd98185611f82565b935083602082028501611feb85611f93565b8060005b8581101561202757848403895281516120088582611fa3565b945061201383611fb7565b925060208a01995050600181019050611fef565b50829750879550505050505092915050565b600060c08301600083015184820360008601526120568282611e92565b915050602083015184820360208601526120708282611e92565b9150506040830151848203604086015261208a8282611e92565b915050606083015184820360608601526120a48282611e92565b915050608083015184820360808601526120be8282611fc4565b91505060a083015184820360a08601526120d88282611e92565b9150508091505092915050565b600060a08301600083015184820360008601526121028282611e92565b9150506020830151848203602086015261211c8282611e92565b915050604083015184820360408601526121368282611e92565b915050606083015184820360608601526121508282611e92565b9150506080830151848203608086015261216a8282611e92565b9150508091505092915050565b60006101008201905081810360008301526121928187611ecb565b905081810360208301526121a68186612039565b905081810360408301526121ba81856120e5565b90506121c96060830184611bcc565b95945050505050565b600080fd5b600080fd5b600060c082840312156121f2576121f16121d2565b5b6121fc60c0611a9d565b9050600082013567ffffffffffffffff81111561221c5761221b6121d7565b5b61222884828501611b3a565b600083015250602082013567ffffffffffffffff81111561224c5761224b6121d7565b5b61225884828501611b3a565b602083015250604082013567ffffffffffffffff81111561227c5761227b6121d7565b5b61228884828501611b3a565b604083015250606082013567ffffffffffffffff8111156122ac576122ab6121d7565b5b6122b884828501611b3a565b606083015250608082013567ffffffffffffffff8111156122dc576122db6121d7565b5b6122e884828501611b3a565b60808301525060a082013567ffffffffffffffff81111561230c5761230b6121d7565b5b61231884828501611b3a565b60a08301525092915050565b600067ffffffffffffffff82111561233f5761233e611a3d565b5b602082029050602081019050919050565b600080fd5b600061236861236384612324565b611a9d565b9050808382526020820190506020840283018581111561238b5761238a612350565b5b835b818110156123d257803567ffffffffffffffff8111156123b0576123af611a22565b5b8086016123bd8982611b3a565b8552602085019450505060208101905061238d565b5050509392505050565b600082601f8301126123f1576123f0611a22565b5b8135612401848260208601612355565b91505092915050565b600060c082840312156124205761241f6121d2565b5b61242a60c0611a9d565b9050600082013567ffffffffffffffff81111561244a576124496121d7565b5b61245684828501611b3a565b600083015250602082013567ffffffffffffffff81111561247a576124796121d7565b5b61248684828501611b3a565b602083015250604082013567ffffffffffffffff8111156124aa576124a96121d7565b5b6124b684828501611b3a565b604083015250606082013567ffffffffffffffff8111156124da576124d96121d7565b5b6124e684828501611b3a565b606083015250608082013567ffffffffffffffff81111561250a576125096121d7565b5b612516848285016123dc565b60808301525060a082013567ffffffffffffffff81111561253a576125396121d7565b5b61254684828501611b3a565b60a08301525092915050565b600060a08284031215612568576125676121d2565b5b61257260a0611a9d565b9050600082013567ffffffffffffffff811115612592576125916121d7565b5b61259e84828501611b3a565b600083015250602082013567ffffffffffffffff8111156125c2576125c16121d7565b5b6125ce84828501611b3a565b602083015250604082013567ffffffffffffffff8111156125f2576125f16121d7565b5b6125fe84828501611b3a565b604083015250606082013567ffffffffffffffff811115612622576126216121d7565b5b61262e84828501611b3a565b606083015250608082013567ffffffffffffffff811115612652576126516121d7565b5b61265e84828501611b3a565b60808301525092915050565b61267381611bb1565b811461267e57600080fd5b50565b6000813590506126908161266a565b92915050565b600060a082840312156126ac576126ab6121d2565b5b6126b660a0611a9d565b905060006126c684828501612681565b60008301525060206126da84828501612681565b60208301525060406126ee84828501612681565b604083015250606061270284828501612681565b606083015250608061271684828501612681565b60808301525092915050565b6000806000806000610120868803121561273f5761273e611a18565b5b600086013567ffffffffffffffff81111561275d5761275c611a1d565b5b61276988828901611b3a565b955050602086013567ffffffffffffffff81111561278a57612789611a1d565b5b612796888289016121dc565b945050604086013567ffffffffffffffff8111156127b7576127b6611a1d565b5b6127c38882890161240a565b935050606086013567ffffffffffffffff8111156127e4576127e3611a1d565b5b6127f088828901612552565b925050608061280188828901612696565b9150509295509295909350565b60008060008060008060c0878903121561282b5761282a611a18565b5b600087013567ffffffffffffffff81111561284957612848611a1d565b5b61285589828a01611b3a565b965050602061286689828a01612681565b955050604061287789828a01612681565b945050606061288889828a01612681565b935050608061289989828a01612681565b92505060a06128aa89828a01612681565b9150509295509295509295565b600081905092915050565b60006128cd82611e4c565b6128d781856128b7565b93506128e7818560208601611e68565b80840191505092915050565b60006128ff82846128c2565b915081905092915050565b600082825260208201905092915050565b7f5573657220646f6573206e6f742065786973742e000000000000000000000000600082015250565b600061295160148361290a565b915061295c8261291b565b602082019050919050565b6000602082019050818103600083015261298081612944565b9050919050565b7f4e487b7100000000000000000000000000000000000000000000000000000000600052602260045260246000fd5b600060028204905060018216806129ce57607f821691505b6020821081036129e1576129e0612987565b5b50919050565b7f557365726e616d6520616c7265616479206578697374732e0000000000000000600082015250565b6000612a1d60188361290a565b9150612a28826129e7565b602082019050919050565b60006020820190508181036000830152612a4c81612a10565b9050919050565b60008190508160005260206000209050919050565b60006020601f8301049050919050565b600082821b905092915050565b600060088302612ab57fffffffffffffffffffffffffffffffffffffffffffffffffffffffffffffffff82612a78565b612abf8683612a78565b95508019841693508086168417925050509392505050565b6000819050919050565b6000612afc612af7612af284611c4f565b612ad7565b611c4f565b9050919050565b6000819050919050565b612b1683612ae1565b612b2a612b2282612b03565b848454612a85565b825550505050565b600090565b612b3f612b32565b612b4a818484612b0d565b505050565b5b81811015612b6e57612b63600082612b37565b600181019050612b50565b5050565b601f821115612bb357612b8481612a53565b612b8d84612a68565b81016020851015612b9c578190505b612bb0612ba885612a68565b830182612b4f565b50505b505050565b600082821c905092915050565b6000612bd660001984600802612bb8565b1980831691505092915050565b6000612bef8383612bc5565b9150826002028217905092915050565b612c0882611e4c565b67ffffffffffffffff811115612c2157612c20611a3d565b5b612c2b82546129b6565b612c36828285612b72565b600060209050601f831160018114612c695760008415612c57578287015190505b612c618582612be3565b865550612cc9565b601f198416612c7786612a53565b60005b82811015612c9f57848901518255600182019150602085019450602081019050612c7a565b86831015612cbc5784890151612cb8601f891682612bc5565b8355505b6001600288020188555050505b50505050505056fea264697066735822122057fb56363c2d7411d2b8a59795fb4e74ba272d9113be611e3ca3420a7551b85464736f6c63430008180033","opcodes":"PUSH1 0x80 PUSH1 0x40 MSTORE CALLVALUE DUP1 ISZERO PUSH2 0x10 JUMPI PUSH1 0x0 DUP1 REVERT JUMPDEST POP PUSH2 0x2D07 DUP1 PUSH2 0x20 PUSH1 0x0 CODECOPY PUSH1 0x0 RETURN INVALID PUSH1 0x80 PUSH1 0x40 MSTORE CALLVALUE DUP1 ISZERO PUSH2 0x10 JUMPI PUSH1 0x0 DUP1 REVERT JUMPDEST POP PUSH1 0x4 CALLDATASIZE LT PUSH2 0x88 JUMPI PUSH1 0x0 CALLDATALOAD PUSH1 0xE0 SHR DUP1 PUSH4 0x9F42AF63 GT PUSH2 0x5B JUMPI DUP1 PUSH4 0x9F42AF63 EQ PUSH2 0x13C JUMPI DUP1 PUSH4 0xBB6228B0 EQ PUSH2 0x16F JUMPI DUP1 PUSH4 0xD1577CAC EQ PUSH2 0x18B JUMPI DUP1 PUSH4 0xF86A29C7 EQ PUSH2 0x1A7 JUMPI PUSH2 0x88 JUMP JUMPDEST DUP1 PUSH4 0x320BA8F7 EQ PUSH2 0x8D JUMPI DUP1 PUSH4 0x49110A6B EQ PUSH2 0xBD JUMPI DUP1 PUSH4 0x4CB51DA7 EQ PUSH2 0xD9 JUMPI DUP1 PUSH4 0x69C212F6 EQ PUSH2 0x109 JUMPI JUMPDEST PUSH1 0x0 DUP1 REVERT JUMPDEST PUSH2 0xA7 PUSH1 0x4 DUP1 CALLDATASIZE SUB DUP2 ADD SWAP1 PUSH2 0xA2 SWAP2 SWAP1 PUSH2 0x1B68 JUMP JUMPDEST PUSH2 0x1C3 JUMP JUMPDEST PUSH1 0x40 MLOAD PUSH2 0xB4 SWAP2 SWAP1 PUSH2 0x1C34 JUMP JUMPDEST PUSH1 0x40 MLOAD DUP1 SWAP2 SUB SWAP1 RETURN JUMPDEST PUSH2 0xD7 PUSH1 0x4 DUP1 CALLDATASIZE SUB DUP2 ADD SWAP1 PUSH2 0xD2 SWAP2 SWAP1 PUSH2 0x1C85 JUMP JUMPDEST PUSH2 0x2F3 JUMP JUMPDEST STOP JUMPDEST PUSH2 0xF3 PUSH1 0x4 DUP1 CALLDATASIZE SUB DUP2 ADD SWAP1 PUSH2 0xEE SWAP2 SWAP1 PUSH2 0x1B68 JUMP JUMPDEST PUSH2 0x3AD JUMP JUMPDEST PUSH1 0x40 MLOAD PUSH2 0x100 SWAP2 SWAP1 PUSH2 0x1D9F JUMP JUMPDEST PUSH1 0x40 MLOAD DUP1 SWAP2 SUB SWAP1 RETURN JUMPDEST PUSH2 0x123 PUSH1 0x4 DUP1 CALLDATASIZE SUB DUP2 ADD SWAP1 PUSH2 0x11E SWAP2 SWAP1 PUSH2 0x1E1F JUMP JUMPDEST PUSH2 0x494 JUMP JUMPDEST PUSH1 0x40 MLOAD PUSH2 0x133 SWAP5 SWAP4 SWAP3 SWAP2 SWAP1 PUSH2 0x2177 JUMP JUMPDEST PUSH1 0x40 MLOAD DUP1 SWAP2 SUB SWAP1 RETURN JUMPDEST PUSH2 0x156 PUSH1 0x4 DUP1 CALLDATASIZE SUB DUP2 ADD SWAP1 PUSH2 0x151 SWAP2 SWAP1 PUSH2 0x1B68 JUMP JUMPDEST PUSH2 0x599 JUMP JUMPDEST PUSH1 0x40 MLOAD PUSH2 0x166 SWAP5 SWAP4 SWAP3 SWAP2 SWAP1 PUSH2 0x2177 JUMP JUMPDEST PUSH1 0x40 MLOAD DUP1 SWAP2 SUB SWAP1 RETURN JUMPDEST PUSH2 0x189 PUSH1 0x4 DUP1 CALLDATASIZE SUB DUP2 ADD SWAP1 PUSH2 0x184 SWAP2 SWAP1 PUSH2 0x2722 JUMP JUMPDEST PUSH2 0x1102 JUMP JUMPDEST STOP JUMPDEST PUSH2 0x1A5 PUSH1 0x4 DUP1 CALLDATASIZE SUB DUP2 ADD SWAP1 PUSH2 0x1A0 SWAP2 SWAP1 PUSH2 0x280E JUMP JUMPDEST PUSH2 0x1471 JUMP JUMPDEST STOP JUMPDEST PUSH2 0x1C1 PUSH1 0x4 DUP1 CALLDATASIZE SUB DUP2 ADD SWAP1 PUSH2 0x1BC SWAP2 SWAP1 PUSH2 0x2722 JUMP JUMPDEST PUSH2 0x15A4 JUMP JUMPDEST STOP JUMPDEST PUSH2 0x1CB PUSH2 0x1860 JUMP JUMPDEST PUSH1 0x0 DUP3 PUSH1 0x40 MLOAD PUSH2 0x1DB SWAP2 SWAP1 PUSH2 0x28F3 JUMP JUMPDEST SWAP1 DUP2 MSTORE PUSH1 0x20 ADD PUSH1 0x40 MLOAD DUP1 SWAP2 SUB SWAP1 KECCAK256 PUSH1 0x12 ADD PUSH1 0x0 SWAP1 SLOAD SWAP1 PUSH2 0x100 EXP SWAP1 DIV PUSH1 0xFF AND PUSH2 0x239 JUMPI PUSH1 0x40 MLOAD PUSH32 0x8C379A000000000000000000000000000000000000000000000000000000000 DUP2 MSTORE PUSH1 0x4 ADD PUSH2 0x230 SWAP1 PUSH2 0x2967 JUMP JUMPDEST PUSH1 0x40 MLOAD DUP1 SWAP2 SUB SWAP1 REVERT JUMPDEST PUSH1 0x0 DUP3 PUSH1 0x40 MLOAD PUSH2 0x249 SWAP2 SWAP1 PUSH2 0x28F3 JUMP JUMPDEST SWAP1 DUP2 MSTORE PUSH1 0x20 ADD PUSH1 0x40 MLOAD DUP1 SWAP2 SUB SWAP1 KECCAK256 PUSH1 0x14 ADD PUSH1 0x40 MLOAD DUP1 PUSH1 0xA0 ADD PUSH1 0x40 MSTORE SWAP1 DUP2 PUSH1 0x0 DUP3 ADD PUSH1 0x0 SWAP1 SLOAD SWAP1 PUSH2 0x100 EXP SWAP1 DIV PUSH1 0xFF AND ISZERO ISZERO ISZERO ISZERO DUP2 MSTORE PUSH1 0x20 ADD PUSH1 0x0 DUP3 ADD PUSH1 0x1 SWAP1 SLOAD SWAP1 PUSH2 0x100 EXP SWAP1 DIV PUSH1 0xFF AND ISZERO ISZERO ISZERO ISZERO DUP2 MSTORE PUSH1 0x20 ADD PUSH1 0x0 DUP3 ADD PUSH1 0x2 SWAP1 SLOAD SWAP1 PUSH2 0x100 EXP SWAP1 DIV PUSH1 0xFF AND ISZERO ISZERO ISZERO ISZERO DUP2 MSTORE PUSH1 0x20 ADD PUSH1 0x0 DUP3 ADD PUSH1 0x3 SWAP1 SLOAD SWAP1 PUSH2 0x100 EXP SWAP1 DIV PUSH1 0xFF AND ISZERO ISZERO ISZERO ISZERO DUP2 MSTORE PUSH1 0x20 ADD PUSH1 0x0 DUP3 ADD PUSH1 0x4 SWAP1 SLOAD SWAP1 PUSH2 0x100 EXP SWAP1 DIV PUSH1 0xFF AND ISZERO ISZERO ISZERO ISZERO DUP2 MSTORE POP POP SWAP1 POP SWAP2 SWAP1 POP JUMP JUMPDEST PUSH1 0x0 DUP3 PUSH1 0x40 MLOAD PUSH2 0x303 SWAP2 SWAP1 PUSH2 0x28F3 JUMP JUMPDEST SWAP1 DUP2 MSTORE PUSH1 0x20 ADD PUSH1 0x40 MLOAD DUP1 SWAP2 SUB SWAP1 KECCAK256 PUSH1 0x12 ADD PUSH1 0x0 SWAP1 SLOAD SWAP1 PUSH2 0x100 EXP SWAP1 DIV PUSH1 0xFF AND PUSH2 0x361 JUMPI PUSH1 0x40 MLOAD PUSH32 0x8C379A000000000000000000000000000000000000000000000000000000000 DUP2 MSTORE PUSH1 0x4 ADD PUSH2 0x358 SWAP1 PUSH2 0x2967 JUMP JUMPDEST PUSH1 0x40 MLOAD DUP1 SWAP2 SUB SWAP1 REVERT JUMPDEST PUSH1 0x0 DUP3 PUSH1 0x40 MLOAD PUSH2 0x371 SWAP2 SWAP1 PUSH2 0x28F3 JUMP JUMPDEST SWAP1 DUP2 MSTORE PUSH1 0x20 ADD PUSH1 0x40 MLOAD DUP1 SWAP2 SUB SWAP1 KECCAK256 PUSH1 0x13 ADD DUP2 SWAP1 DUP1 PUSH1 0x1 DUP2 SLOAD ADD DUP1 DUP3 SSTORE DUP1 SWAP2 POP POP PUSH1 0x1 SWAP1 SUB SWAP1 PUSH1 0x0 MSTORE PUSH1 0x20 PUSH1 0x0 KECCAK256 ADD PUSH1 0x0 SWAP1 SWAP2 SWAP1 SWAP2 SWAP1 SWAP2 POP SSTORE POP POP JUMP JUMPDEST PUSH1 0x60 PUSH1 0x0 DUP3 PUSH1 0x40 MLOAD PUSH2 0x3BF SWAP2 SWAP1 PUSH2 0x28F3 JUMP JUMPDEST SWAP1 DUP2 MSTORE PUSH1 0x20 ADD PUSH1 0x40 MLOAD DUP1 SWAP2 SUB SWAP1 KECCAK256 PUSH1 0x12 ADD PUSH1 0x0 SWAP1 SLOAD SWAP1 PUSH2 0x100 EXP SWAP1 DIV PUSH1 0xFF AND PUSH2 0x41D JUMPI PUSH1 0x40 MLOAD PUSH32 0x8C379A000000000000000000000000000000000000000000000000000000000 DUP2 MSTORE PUSH1 0x4 ADD PUSH2 0x414 SWAP1 PUSH2 0x2967 JUMP JUMPDEST PUSH1 0x40 MLOAD DUP1 SWAP2 SUB SWAP1 REVERT JUMPDEST PUSH1 0x0 DUP3 PUSH1 0x40 MLOAD PUSH2 0x42D SWAP2 SWAP1 PUSH2 0x28F3 JUMP JUMPDEST SWAP1 DUP2 MSTORE PUSH1 0x20 ADD PUSH1 0x40 MLOAD DUP1 SWAP2 SUB SWAP1 KECCAK256 PUSH1 0x13 ADD DUP1 SLOAD DUP1 PUSH1 0x20 MUL PUSH1 0x20 ADD PUSH1 0x40 MLOAD SWAP1 DUP2 ADD PUSH1 0x40 MSTORE DUP1 SWAP3 SWAP2 SWAP1 DUP2 DUP2 MSTORE PUSH1 0x20 ADD DUP3 DUP1 SLOAD DUP1 ISZERO PUSH2 0x488 JUMPI PUSH1 0x20 MUL DUP3 ADD SWAP2 SWAP1 PUSH1 0x0 MSTORE PUSH1 0x20 PUSH1 0x0 KECCAK256 SWAP1 JUMPDEST DUP2 SLOAD DUP2 MSTORE PUSH1 0x20 ADD SWAP1 PUSH1 0x1 ADD SWAP1 DUP1 DUP4 GT PUSH2 0x474 JUMPI JUMPDEST POP POP POP POP POP SWAP1 POP SWAP2 SWAP1 POP JUMP JUMPDEST PUSH2 0x49C PUSH2 0x1899 JUMP JUMPDEST PUSH2 0x4A4 PUSH2 0x18CF JUMP JUMPDEST PUSH2 0x4AC PUSH2 0x1905 JUMP JUMPDEST PUSH2 0x4B4 PUSH2 0x1860 JUMP JUMPDEST PUSH1 0x0 PUSH1 0x1 PUSH1 0x0 DUP8 PUSH20 0xFFFFFFFFFFFFFFFFFFFFFFFFFFFFFFFFFFFFFFFF AND PUSH20 0xFFFFFFFFFFFFFFFFFFFFFFFFFFFFFFFFFFFFFFFF AND DUP2 MSTORE PUSH1 0x20 ADD SWAP1 DUP2 MSTORE PUSH1 0x20 ADD PUSH1 0x0 KECCAK256 DUP1 SLOAD PUSH2 0x500 SWAP1 PUSH2 0x29B6 JUMP JUMPDEST DUP1 PUSH1 0x1F ADD PUSH1 0x20 DUP1 SWAP2 DIV MUL PUSH1 0x20 ADD PUSH1 0x40 MLOAD SWAP1 DUP2 ADD PUSH1 0x40 MSTORE DUP1 SWAP3 SWAP2 SWAP1 DUP2 DUP2 MSTORE PUSH1 0x20 ADD DUP3 DUP1 SLOAD PUSH2 0x52C SWAP1 PUSH2 0x29B6 JUMP JUMPDEST DUP1 ISZERO PUSH2 0x579 JUMPI DUP1 PUSH1 0x1F LT PUSH2 0x54E JUMPI PUSH2 0x100 DUP1 DUP4 SLOAD DIV MUL DUP4 MSTORE SWAP2 PUSH1 0x20 ADD SWAP2 PUSH2 0x579 JUMP JUMPDEST DUP3 ADD SWAP2 SWAP1 PUSH1 0x0 MSTORE PUSH1 0x20 PUSH1 0x0 KECCAK256 SWAP1 JUMPDEST DUP2 SLOAD DUP2 MSTORE SWAP1 PUSH1 0x1 ADD SWAP1 PUSH1 0x20 ADD DUP1 DUP4 GT PUSH2 0x55C JUMPI DUP3 SWAP1 SUB PUSH1 0x1F AND DUP3 ADD SWAP2 JUMPDEST POP POP POP POP POP SWAP1 POP PUSH2 0x589 DUP2 PUSH2 0x599 JUMP JUMPDEST SWAP5 POP SWAP5 POP SWAP5 POP SWAP5 POP POP SWAP2 SWAP4 POP SWAP2 SWAP4 JUMP JUMPDEST PUSH2 0x5A1 PUSH2 0x1899 JUMP JUMPDEST PUSH2 0x5A9 PUSH2 0x18CF JUMP JUMPDEST PUSH2 0x5B1 PUSH2 0x1905 JUMP JUMPDEST PUSH2 0x5B9 PUSH2 0x1860 JUMP JUMPDEST PUSH1 0x0 DUP6 PUSH1 0x40 MLOAD PUSH2 0x5C9 SWAP2 SWAP1 PUSH2 0x28F3 JUMP JUMPDEST SWAP1 DUP2 MSTORE PUSH1 0x20 ADD PUSH1 0x40 MLOAD DUP1 SWAP2 SUB SWAP1 KECCAK256 PUSH1 0x12 ADD PUSH1 0x0 SWAP1 SLOAD SWAP1 PUSH2 0x100 EXP SWAP1 DIV PUSH1 0xFF AND PUSH2 0x627 JUMPI PUSH1 0x40 MLOAD PUSH32 0x8C379A000000000000000000000000000000000000000000000000000000000 DUP2 MSTORE PUSH1 0x4 ADD PUSH2 0x61E SWAP1 PUSH2 0x2967 JUMP JUMPDEST PUSH1 0x40 MLOAD DUP1 SWAP2 SUB SWAP1 REVERT JUMPDEST PUSH1 0x0 DUP1 DUP7 PUSH1 0x40 MLOAD PUSH2 0x638 SWAP2 SWAP1 PUSH2 0x28F3 JUMP JUMPDEST SWAP1 DUP2 MSTORE PUSH1 0x20 ADD PUSH1 0x40 MLOAD DUP1 SWAP2 SUB SWAP1 KECCAK256 SWAP1 POP PUSH1 0x40 MLOAD DUP1 PUSH1 0xC0 ADD PUSH1 0x40 MSTORE DUP1 DUP3 PUSH1 0x0 ADD DUP1 SLOAD PUSH2 0x662 SWAP1 PUSH2 0x29B6 JUMP JUMPDEST DUP1 PUSH1 0x1F ADD PUSH1 0x20 DUP1 SWAP2 DIV MUL PUSH1 0x20 ADD PUSH1 0x40 MLOAD SWAP1 DUP2 ADD PUSH1 0x40 MSTORE DUP1 SWAP3 SWAP2 SWAP1 DUP2 DUP2 MSTORE PUSH1 0x20 ADD DUP3 DUP1 SLOAD PUSH2 0x68E SWAP1 PUSH2 0x29B6 JUMP JUMPDEST DUP1 ISZERO PUSH2 0x6DB JUMPI DUP1 PUSH1 0x1F LT PUSH2 0x6B0 JUMPI PUSH2 0x100 DUP1 DUP4 SLOAD DIV MUL DUP4 MSTORE SWAP2 PUSH1 0x20 ADD SWAP2 PUSH2 0x6DB JUMP JUMPDEST DUP3 ADD SWAP2 SWAP1 PUSH1 0x0 MSTORE PUSH1 0x20 PUSH1 0x0 KECCAK256 SWAP1 JUMPDEST DUP2 SLOAD DUP2 MSTORE SWAP1 PUSH1 0x1 ADD SWAP1 PUSH1 0x20 ADD DUP1 DUP4 GT PUSH2 0x6BE JUMPI DUP3 SWAP1 SUB PUSH1 0x1F AND DUP3 ADD SWAP2 JUMPDEST POP POP POP POP POP DUP2 MSTORE PUSH1 0x20 ADD DUP3 PUSH1 0x1 ADD DUP1 SLOAD PUSH2 0x6F4 SWAP1 PUSH2 0x29B6 JUMP JUMPDEST DUP1 PUSH1 0x1F ADD PUSH1 0x20 DUP1 SWAP2 DIV MUL PUSH1 0x20 ADD PUSH1 0x40 MLOAD SWAP1 DUP2 ADD PUSH1 0x40 MSTORE DUP1 SWAP3 SWAP2 SWAP1 DUP2 DUP2 MSTORE PUSH1 0x20 ADD DUP3 DUP1 SLOAD PUSH2 0x720 SWAP1 PUSH2 0x29B6 JUMP JUMPDEST DUP1 ISZERO PUSH2 0x76D JUMPI DUP1 PUSH1 0x1F LT PUSH2 0x742 JUMPI PUSH2 0x100 DUP1 DUP4 SLOAD DIV MUL DUP4 MSTORE SWAP2 PUSH1 0x20 ADD SWAP2 PUSH2 0x76D JUMP JUMPDEST DUP3 ADD SWAP2 SWAP1 PUSH1 0x0 MSTORE PUSH1 0x20 PUSH1 0x0 KECCAK256 SWAP1 JUMPDEST DUP2 SLOAD DUP2 MSTORE SWAP1 PUSH1 0x1 ADD SWAP1 PUSH1 0x20 ADD DUP1 DUP4 GT PUSH2 0x750 JUMPI DUP3 SWAP1 SUB PUSH1 0x1F AND DUP3 ADD SWAP2 JUMPDEST POP POP POP POP POP DUP2 MSTORE PUSH1 0x20 ADD DUP3 PUSH1 0x3 ADD DUP1 SLOAD PUSH2 0x786 SWAP1 PUSH2 0x29B6 JUMP JUMPDEST DUP1 PUSH1 0x1F ADD PUSH1 0x20 DUP1 SWAP2 DIV MUL PUSH1 0x20 ADD PUSH1 0x40 MLOAD SWAP1 DUP2 ADD PUSH1 0x40 MSTORE DUP1 SWAP3 SWAP2 SWAP1 DUP2 DUP2 MSTORE PUSH1 0x20 ADD DUP3 DUP1 SLOAD PUSH2 0x7B2 SWAP1 PUSH2 0x29B6 JUMP JUMPDEST DUP1 ISZERO PUSH2 0x7FF JUMPI DUP1 PUSH1 0x1F LT PUSH2 0x7D4 JUMPI PUSH2 0x100 DUP1 DUP4 SLOAD DIV MUL DUP4 MSTORE SWAP2 PUSH1 0x20 ADD SWAP2 PUSH2 0x7FF JUMP JUMPDEST DUP3 ADD SWAP2 SWAP1 PUSH1 0x0 MSTORE PUSH1 0x20 PUSH1 0x0 KECCAK256 SWAP1 JUMPDEST DUP2 SLOAD DUP2 MSTORE SWAP1 PUSH1 0x1 ADD SWAP1 PUSH1 0x20 ADD DUP1 DUP4 GT PUSH2 0x7E2 JUMPI DUP3 SWAP1 SUB PUSH1 0x1F AND DUP3 ADD SWAP2 JUMPDEST POP POP POP POP POP DUP2 MSTORE PUSH1 0x20 ADD DUP3 PUSH1 0x4 ADD DUP1 SLOAD PUSH2 0x818 SWAP1 PUSH2 0x29B6 JUMP JUMPDEST DUP1 PUSH1 0x1F ADD PUSH1 0x20 DUP1 SWAP2 DIV MUL PUSH1 0x20 ADD PUSH1 0x40 MLOAD SWAP1 DUP2 ADD PUSH1 0x40 MSTORE DUP1 SWAP3 SWAP2 SWAP1 DUP2 DUP2 MSTORE PUSH1 0x20 ADD DUP3 DUP1 SLOAD PUSH2 0x844 SWAP1 PUSH2 0x29B6 JUMP JUMPDEST DUP1 ISZERO PUSH2 0x891 JUMPI DUP1 PUSH1 0x1F LT PUSH2 0x866 JUMPI PUSH2 0x100 DUP1 DUP4 SLOAD DIV MUL DUP4 MSTORE SWAP2 PUSH1 0x20 ADD SWAP2 PUSH2 0x891 JUMP JUMPDEST DUP3 ADD SWAP2 SWAP1 PUSH1 0x0 MSTORE PUSH1 0x20 PUSH1 0x0 KECCAK256 SWAP1 JUMPDEST DUP2 SLOAD DUP2 MSTORE SWAP1 PUSH1 0x1 ADD SWAP1 PUSH1 0x20 ADD DUP1 DUP4 GT PUSH2 0x874 JUMPI DUP3 SWAP1 SUB PUSH1 0x1F AND DUP3 ADD SWAP2 JUMPDEST POP POP POP POP POP DUP2 MSTORE PUSH1 0x20 ADD DUP3 PUSH1 0x5 ADD DUP1 SLOAD PUSH2 0x8AA SWAP1 PUSH2 0x29B6 JUMP JUMPDEST DUP1 PUSH1 0x1F ADD PUSH1 0x20 DUP1 SWAP2 DIV MUL PUSH1 0x20 ADD PUSH1 0x40 MLOAD SWAP1 DUP2 ADD PUSH1 0x40 MSTORE DUP1 SWAP3 SWAP2 SWAP1 DUP2 DUP2 MSTORE PUSH1 0x20 ADD DUP3 DUP1 SLOAD PUSH2 0x8D6 SWAP1 PUSH2 0x29B6 JUMP JUMPDEST DUP1 ISZERO PUSH2 0x923 JUMPI DUP1 PUSH1 0x1F LT PUSH2 0x8F8 JUMPI PUSH2 0x100 DUP1 DUP4 SLOAD DIV MUL DUP4 MSTORE SWAP2 PUSH1 0x20 ADD SWAP2 PUSH2 0x923 JUMP JUMPDEST DUP3 ADD SWAP2 SWAP1 PUSH1 0x0 MSTORE PUSH1 0x20 PUSH1 0x0 KECCAK256 SWAP1 JUMPDEST DUP2 SLOAD DUP2 MSTORE SWAP1 PUSH1 0x1 ADD SWAP1 PUSH1 0x20 ADD DUP1 DUP4 GT PUSH2 0x906 JUMPI DUP3 SWAP1 SUB PUSH1 0x1F AND DUP3 ADD SWAP2 JUMPDEST POP POP POP POP POP DUP2 MSTORE PUSH1 0x20 ADD DUP3 PUSH1 0x8 ADD DUP1 SLOAD PUSH2 0x93C SWAP1 PUSH2 0x29B6 JUMP JUMPDEST DUP1 PUSH1 0x1F ADD PUSH1 0x20 DUP1 SWAP2 DIV MUL PUSH1 0x20 ADD PUSH1 0x40 MLOAD SWAP1 DUP2 ADD PUSH1 0x40 MSTORE DUP1 SWAP3 SWAP2 SWAP1 DUP2 DUP2 MSTORE PUSH1 0x20 ADD DUP3 DUP1 SLOAD PUSH2 0x968 SWAP1 PUSH2 0x29B6 JUMP JUMPDEST DUP1 ISZERO PUSH2 0x9B5 JUMPI DUP1 PUSH1 0x1F LT PUSH2 0x98A JUMPI PUSH2 0x100 DUP1 DUP4 SLOAD DIV MUL DUP4 MSTORE SWAP2 PUSH1 0x20 ADD SWAP2 PUSH2 0x9B5 JUMP JUMPDEST DUP3 ADD SWAP2 SWAP1 PUSH1 0x0 MSTORE PUSH1 0x20 PUSH1 0x0 KECCAK256 SWAP1 JUMPDEST DUP2 SLOAD DUP2 MSTORE SWAP1 PUSH1 0x1 ADD SWAP1 PUSH1 0x20 ADD DUP1 DUP4 GT PUSH2 0x998 JUMPI DUP3 SWAP1 SUB PUSH1 0x1F AND DUP3 ADD SWAP2 JUMPDEST POP POP POP POP POP DUP2 MSTORE POP SWAP5 POP PUSH1 0x40 MLOAD DUP1 PUSH1 0xC0 ADD PUSH1 0x40 MSTORE DUP1 DUP3 PUSH1 0x6 ADD DUP1 SLOAD PUSH2 0x9D9 SWAP1 PUSH2 0x29B6 JUMP JUMPDEST DUP1 PUSH1 0x1F ADD PUSH1 0x20 DUP1 SWAP2 DIV MUL PUSH1 0x20 ADD PUSH1 0x40 MLOAD SWAP1 DUP2 ADD PUSH1 0x40 MSTORE DUP1 SWAP3 SWAP2 SWAP1 DUP2 DUP2 MSTORE PUSH1 0x20 ADD DUP3 DUP1 SLOAD PUSH2 0xA05 SWAP1 PUSH2 0x29B6 JUMP JUMPDEST DUP1 ISZERO PUSH2 0xA52 JUMPI DUP1 PUSH1 0x1F LT PUSH2 0xA27 JUMPI PUSH2 0x100 DUP1 DUP4 SLOAD DIV MUL DUP4 MSTORE SWAP2 PUSH1 0x20 ADD SWAP2 PUSH2 0xA52 JUMP JUMPDEST DUP3 ADD SWAP2 SWAP1 PUSH1 0x0 MSTORE PUSH1 0x20 PUSH1 0x0 KECCAK256 SWAP1 JUMPDEST DUP2 SLOAD DUP2 MSTORE SWAP1 PUSH1 0x1 ADD SWAP1 PUSH1 0x20 ADD DUP1 DUP4 GT PUSH2 0xA35 JUMPI DUP3 SWAP1 SUB PUSH1 0x1F AND DUP3 ADD SWAP2 JUMPDEST POP POP POP POP POP DUP2 MSTORE PUSH1 0x20 ADD DUP3 PUSH1 0x7 ADD DUP1 SLOAD PUSH2 0xA6B SWAP1 PUSH2 0x29B6 JUMP JUMPDEST DUP1 PUSH1 0x1F ADD PUSH1 0x20 DUP1 SWAP2 DIV MUL PUSH1 0x20 ADD PUSH1 0x40 MLOAD SWAP1 DUP2 ADD PUSH1 0x40 MSTORE DUP1 SWAP3 SWAP2 SWAP1 DUP2 DUP2 MSTORE PUSH1 0x20 ADD DUP3 DUP1 SLOAD PUSH2 0xA97 SWAP1 PUSH2 0x29B6 JUMP JUMPDEST DUP1 ISZERO PUSH2 0xAE4 JUMPI DUP1 PUSH1 0x1F LT PUSH2 0xAB9 JUMPI PUSH2 0x100 DUP1 DUP4 SLOAD DIV MUL DUP4 MSTORE SWAP2 PUSH1 0x20 ADD SWAP2 PUSH2 0xAE4 JUMP JUMPDEST DUP3 ADD SWAP2 SWAP1 PUSH1 0x0 MSTORE PUSH1 0x20 PUSH1 0x0 KECCAK256 SWAP1 JUMPDEST DUP2 SLOAD DUP2 MSTORE SWAP1 PUSH1 0x1 ADD SWAP1 PUSH1 0x20 ADD DUP1 DUP4 GT PUSH2 0xAC7 JUMPI DUP3 SWAP1 SUB PUSH1 0x1F AND DUP3 ADD SWAP2 JUMPDEST POP POP POP POP POP DUP2 MSTORE PUSH1 0x20 ADD DUP3 PUSH1 0x9 ADD DUP1 SLOAD PUSH2 0xAFD SWAP1 PUSH2 0x29B6 JUMP JUMPDEST DUP1 PUSH1 0x1F ADD PUSH1 0x20 DUP1 SWAP2 DIV MUL PUSH1 0x20 ADD PUSH1 0x40 MLOAD SWAP1 DUP2 ADD PUSH1 0x40 MSTORE DUP1 SWAP3 SWAP2 SWAP1 DUP2 DUP2 MSTORE PUSH1 0x20 ADD DUP3 DUP1 SLOAD PUSH2 0xB29 SWAP1 PUSH2 0x29B6 JUMP JUMPDEST DUP1 ISZERO PUSH2 0xB76 JUMPI DUP1 PUSH1 0x1F LT PUSH2 0xB4B JUMPI PUSH2 0x100 DUP1 DUP4 SLOAD DIV MUL DUP4 MSTORE SWAP2 PUSH1 0x20 ADD SWAP2 PUSH2 0xB76 JUMP JUMPDEST DUP3 ADD SWAP2 SWAP1 PUSH1 0x0 MSTORE PUSH1 0x20 PUSH1 0x0 KECCAK256 SWAP1 JUMPDEST DUP2 SLOAD DUP2 MSTORE SWAP1 PUSH1 0x1 ADD SWAP1 PUSH1 0x20 ADD DUP1 DUP4 GT PUSH2 0xB59 JUMPI DUP3 SWAP1 SUB PUSH1 0x1F AND DUP3 ADD SWAP2 JUMPDEST POP POP POP POP POP DUP2 MSTORE PUSH1 0x20 ADD DUP3 PUSH1 0xF ADD DUP1 SLOAD PUSH2 0xB8F SWAP1 PUSH2 0x29B6 JUMP JUMPDEST DUP1 PUSH1 0x1F ADD PUSH1 0x20 DUP1 SWAP2 DIV MUL PUSH1 0x20 ADD PUSH1 0x40 MLOAD SWAP1 DUP2 ADD PUSH1 0x40 MSTORE DUP1 SWAP3 SWAP2 SWAP1 DUP2 DUP2 MSTORE PUSH1 0x20 ADD DUP3 DUP1 SLOAD PUSH2 0xBBB SWAP1 PUSH2 0x29B6 JUMP JUMPDEST DUP1 ISZERO PUSH2 0xC08 JUMPI DUP1 PUSH1 0x1F LT PUSH2 0xBDD JUMPI PUSH2 0x100 DUP1 DUP4 SLOAD DIV MUL DUP4 MSTORE SWAP2 PUSH1 0x20 ADD SWAP2 PUSH2 0xC08 JUMP JUMPDEST DUP3 ADD SWAP2 SWAP1 PUSH1 0x0 MSTORE PUSH1 0x20 PUSH1 0x0 KECCAK256 SWAP1 JUMPDEST DUP2 SLOAD DUP2 MSTORE SWAP1 PUSH1 0x1 ADD SWAP1 PUSH1 0x20 ADD DUP1 DUP4 GT PUSH2 0xBEB JUMPI DUP3 SWAP1 SUB PUSH1 0x1F AND DUP3 ADD SWAP2 JUMPDEST POP POP POP POP POP DUP2 MSTORE PUSH1 0x20 ADD DUP3 PUSH1 0x10 ADD DUP1 SLOAD DUP1 PUSH1 0x20 MUL PUSH1 0x20 ADD PUSH1 0x40 MLOAD SWAP1 DUP2 ADD PUSH1 0x40 MSTORE DUP1 SWAP3 SWAP2 SWAP1 DUP2 DUP2 MSTORE PUSH1 0x20 ADD PUSH1 0x0 SWAP1 JUMPDEST DUP3 DUP3 LT ISZERO PUSH2 0xCE2 JUMPI DUP4 DUP3 SWAP1 PUSH1 0x0 MSTORE PUSH1 0x20 PUSH1 0x0 KECCAK256 ADD DUP1 SLOAD PUSH2 0xC55 SWAP1 PUSH2 0x29B6 JUMP JUMPDEST DUP1 PUSH1 0x1F ADD PUSH1 0x20 DUP1 SWAP2 DIV MUL PUSH1 0x20 ADD PUSH1 0x40 MLOAD SWAP1 DUP2 ADD PUSH1 0x40 MSTORE DUP1 SWAP3 SWAP2 SWAP1 DUP2 DUP2 MSTORE PUSH1 0x20 ADD DUP3 DUP1 SLOAD PUSH2 0xC81 SWAP1 PUSH2 0x29B6 JUMP JUMPDEST DUP1 ISZERO PUSH2 0xCCE JUMPI DUP1 PUSH1 0x1F LT PUSH2 0xCA3 JUMPI PUSH2 0x100 DUP1 DUP4 SLOAD DIV MUL DUP4 MSTORE SWAP2 PUSH1 0x20 ADD SWAP2 PUSH2 0xCCE JUMP JUMPDEST DUP3 ADD SWAP2 SWAP1 PUSH1 0x0 MSTORE PUSH1 0x20 PUSH1 0x0 KECCAK256 SWAP1 JUMPDEST DUP2 SLOAD DUP2 MSTORE SWAP1 PUSH1 0x1 ADD SWAP1 PUSH1 0x20 ADD DUP1 DUP4 GT PUSH2 0xCB1 JUMPI DUP3 SWAP1 SUB PUSH1 0x1F AND DUP3 ADD SWAP2 JUMPDEST POP POP POP POP POP DUP2 MSTORE PUSH1 0x20 ADD SWAP1 PUSH1 0x1 ADD SWAP1 PUSH2 0xC36 JUMP JUMPDEST POP POP POP POP DUP2 MSTORE PUSH1 0x20 ADD DUP3 PUSH1 0x11 ADD DUP1 SLOAD PUSH2 0xCFA SWAP1 PUSH2 0x29B6 JUMP JUMPDEST DUP1 PUSH1 0x1F ADD PUSH1 0x20 DUP1 SWAP2 DIV MUL PUSH1 0x20 ADD PUSH1 0x40 MLOAD SWAP1 DUP2 ADD PUSH1 0x40 MSTORE DUP1 SWAP3 SWAP2 SWAP1 DUP2 DUP2 MSTORE PUSH1 0x20 ADD DUP3 DUP1 SLOAD PUSH2 0xD26 SWAP1 PUSH2 0x29B6 JUMP JUMPDEST DUP1 ISZERO PUSH2 0xD73 JUMPI DUP1 PUSH1 0x1F LT PUSH2 0xD48 JUMPI PUSH2 0x100 DUP1 DUP4 SLOAD DIV MUL DUP4 MSTORE SWAP2 PUSH1 0x20 ADD SWAP2 PUSH2 0xD73 JUMP JUMPDEST DUP3 ADD SWAP2 SWAP1 PUSH1 0x0 MSTORE PUSH1 0x20 PUSH1 0x0 KECCAK256 SWAP1 JUMPDEST DUP2 SLOAD DUP2 MSTORE SWAP1 PUSH1 0x1 ADD SWAP1 PUSH1 0x20 ADD DUP1 DUP4 GT PUSH2 0xD56 JUMPI DUP3 SWAP1 SUB PUSH1 0x1F AND DUP3 ADD SWAP2 JUMPDEST POP POP POP POP POP DUP2 MSTORE POP SWAP4 POP PUSH1 0x40 MLOAD DUP1 PUSH1 0xA0 ADD PUSH1 0x40 MSTORE DUP1 DUP3 PUSH1 0xA ADD DUP1 SLOAD PUSH2 0xD97 SWAP1 PUSH2 0x29B6 JUMP JUMPDEST DUP1 PUSH1 0x1F ADD PUSH1 0x20 DUP1 SWAP2 DIV MUL PUSH1 0x20 ADD PUSH1 0x40 MLOAD SWAP1 DUP2 ADD PUSH1 0x40 MSTORE DUP1 SWAP3 SWAP2 SWAP1 DUP2 DUP2 MSTORE PUSH1 0x20 ADD DUP3 DUP1 SLOAD PUSH2 0xDC3 SWAP1 PUSH2 0x29B6 JUMP JUMPDEST DUP1 ISZERO PUSH2 0xE10 JUMPI DUP1 PUSH1 0x1F LT PUSH2 0xDE5 JUMPI PUSH2 0x100 DUP1 DUP4 SLOAD DIV MUL DUP4 MSTORE SWAP2 PUSH1 0x20 ADD SWAP2 PUSH2 0xE10 JUMP JUMPDEST DUP3 ADD SWAP2 SWAP1 PUSH1 0x0 MSTORE PUSH1 0x20 PUSH1 0x0 KECCAK256 SWAP1 JUMPDEST DUP2 SLOAD DUP2 MSTORE SWAP1 PUSH1 0x1 ADD SWAP1 PUSH1 0x20 ADD DUP1 DUP4 GT PUSH2 0xDF3 JUMPI DUP3 SWAP1 SUB PUSH1 0x1F AND DUP3 ADD SWAP2 JUMPDEST POP POP POP POP POP DUP2 MSTORE PUSH1 0x20 ADD DUP3 PUSH1 0xB ADD DUP1 SLOAD PUSH2 0xE29 SWAP1 PUSH2 0x29B6 JUMP JUMPDEST DUP1 PUSH1 0x1F ADD PUSH1 0x20 DUP1 SWAP2 DIV MUL PUSH1 0x20 ADD PUSH1 0x40 MLOAD SWAP1 DUP2 ADD PUSH1 0x40 MSTORE DUP1 SWAP3 SWAP2 SWAP1 DUP2 DUP2 MSTORE PUSH1 0x20 ADD DUP3 DUP1 SLOAD PUSH2 0xE55 SWAP1 PUSH2 0x29B6 JUMP JUMPDEST DUP1 ISZERO PUSH2 0xEA2 JUMPI DUP1 PUSH1 0x1F LT PUSH2 0xE77 JUMPI PUSH2 0x100 DUP1 DUP4 SLOAD DIV MUL DUP4 MSTORE SWAP2 PUSH1 0x20 ADD SWAP2 PUSH2 0xEA2 JUMP JUMPDEST DUP3 ADD SWAP2 SWAP1 PUSH1 0x0 MSTORE PUSH1 0x20 PUSH1 0x0 KECCAK256 SWAP1 JUMPDEST DUP2 SLOAD DUP2 MSTORE SWAP1 PUSH1 0x1 ADD SWAP1 PUSH1 0x20 ADD DUP1 DUP4 GT PUSH2 0xE85 JUMPI DUP3 SWAP1 SUB PUSH1 0x1F AND DUP3 ADD SWAP2 JUMPDEST POP POP POP POP POP DUP2 MSTORE PUSH1 0x20 ADD DUP3 PUSH1 0xC ADD DUP1 SLOAD PUSH2 0xEBB SWAP1 PUSH2 0x29B6 JUMP JUMPDEST DUP1 PUSH1 0x1F ADD PUSH1 0x20 DUP1 SWAP2 DIV MUL PUSH1 0x20 ADD PUSH1 0x40 MLOAD SWAP1 DUP2 ADD PUSH1 0x40 MSTORE DUP1 SWAP3 SWAP2 SWAP1 DUP2 DUP2 MSTORE PUSH1 0x20 ADD DUP3 DUP1 SLOAD PUSH2 0xEE7 SWAP1 PUSH2 0x29B6 JUMP JUMPDEST DUP1 ISZERO PUSH2 0xF34 JUMPI DUP1 PUSH1 0x1F LT PUSH2 0xF09 JUMPI PUSH2 0x100 DUP1 DUP4 SLOAD DIV MUL DUP4 MSTORE SWAP2 PUSH1 0x20 ADD SWAP2 PUSH2 0xF34 JUMP JUMPDEST DUP3 ADD SWAP2 SWAP1 PUSH1 0x0 MSTORE PUSH1 0x20 PUSH1 0x0 KECCAK256 SWAP1 JUMPDEST DUP2 SLOAD DUP2 MSTORE SWAP1 PUSH1 0x1 ADD SWAP1 PUSH1 0x20 ADD DUP1 DUP4 GT PUSH2 0xF17 JUMPI DUP3 SWAP1 SUB PUSH1 0x1F AND DUP3 ADD SWAP2 JUMPDEST POP POP POP POP POP DUP2 MSTORE PUSH1 0x20 ADD DUP3 PUSH1 0xD ADD DUP1 SLOAD PUSH2 0xF4D SWAP1 PUSH2 0x29B6 JUMP JUMPDEST DUP1 PUSH1 0x1F ADD PUSH1 0x20 DUP1 SWAP2 DIV MUL PUSH1 0x20 ADD PUSH1 0x40 MLOAD SWAP1 DUP2 ADD PUSH1 0x40 MSTORE DUP1 SWAP3 SWAP2 SWAP1 DUP2 DUP2 MSTORE PUSH1 0x20 ADD DUP3 DUP1 SLOAD PUSH2 0xF79 SWAP1 PUSH2 0x29B6 JUMP JUMPDEST DUP1 ISZERO PUSH2 0xFC6 JUMPI DUP1 PUSH1 0x1F LT PUSH2 0xF9B JUMPI PUSH2 0x100 DUP1 DUP4 SLOAD DIV MUL DUP4 MSTORE SWAP2 PUSH1 0x20 ADD SWAP2 PUSH2 0xFC6 JUMP JUMPDEST DUP3 ADD SWAP2 SWAP1 PUSH1 0x0 MSTORE PUSH1 0x20 PUSH1 0x0 KECCAK256 SWAP1 JUMPDEST DUP2 SLOAD DUP2 MSTORE SWAP1 PUSH1 0x1 ADD SWAP1 PUSH1 0x20 ADD DUP1 DUP4 GT PUSH2 0xFA9 JUMPI DUP3 SWAP1 SUB PUSH1 0x1F AND DUP3 ADD SWAP2 JUMPDEST POP POP POP POP POP DUP2 MSTORE PUSH1 0x20 ADD DUP3 PUSH1 0xE ADD DUP1 SLOAD PUSH2 0xFDF SWAP1 PUSH2 0x29B6 JUMP JUMPDEST DUP1 PUSH1 0x1F ADD PUSH1 0x20 DUP1 SWAP2 DIV MUL PUSH1 0x20 ADD PUSH1 0x40 MLOAD SWAP1 DUP2 ADD PUSH1 0x40 MSTORE DUP1 SWAP3 SWAP2 SWAP1 DUP2 DUP2 MSTORE PUSH1 0x20 ADD DUP3 DUP1 SLOAD PUSH2 0x100B SWAP1 PUSH2 0x29B6 JUMP JUMPDEST DUP1 ISZERO PUSH2 0x1058 JUMPI DUP1 PUSH1 0x1F LT PUSH2 0x102D JUMPI PUSH2 0x100 DUP1 DUP4 SLOAD DIV MUL DUP4 MSTORE SWAP2 PUSH1 0x20 ADD SWAP2 PUSH2 0x1058 JUMP JUMPDEST DUP3 ADD SWAP2 SWAP1 PUSH1 0x0 MSTORE PUSH1 0x20 PUSH1 0x0 KECCAK256 SWAP1 JUMPDEST DUP2 SLOAD DUP2 MSTORE SWAP1 PUSH1 0x1 ADD SWAP1 PUSH1 0x20 ADD DUP1 DUP4 GT PUSH2 0x103B JUMPI DUP3 SWAP1 SUB PUSH1 0x1F AND DUP3 ADD SWAP2 JUMPDEST POP POP POP POP POP DUP2 MSTORE POP SWAP3 POP DUP1 PUSH1 0x14 ADD PUSH1 0x40 MLOAD DUP1 PUSH1 0xA0 ADD PUSH1 0x40 MSTORE SWAP1 DUP2 PUSH1 0x0 DUP3 ADD PUSH1 0x0 SWAP1 SLOAD SWAP1 PUSH2 0x100 EXP SWAP1 DIV PUSH1 0xFF AND ISZERO ISZERO ISZERO ISZERO DUP2 MSTORE PUSH1 0x20 ADD PUSH1 0x0 DUP3 ADD PUSH1 0x1 SWAP1 SLOAD SWAP1 PUSH2 0x100 EXP SWAP1 DIV PUSH1 0xFF AND ISZERO ISZERO ISZERO ISZERO DUP2 MSTORE PUSH1 0x20 ADD PUSH1 0x0 DUP3 ADD PUSH1 0x2 SWAP1 SLOAD SWAP1 PUSH2 0x100 EXP SWAP1 DIV PUSH1 0xFF AND ISZERO ISZERO ISZERO ISZERO DUP2 MSTORE PUSH1 0x20 ADD PUSH1 0x0 DUP3 ADD PUSH1 0x3 SWAP1 SLOAD SWAP1 PUSH2 0x100 EXP SWAP1 DIV PUSH1 0xFF AND ISZERO ISZERO ISZERO ISZERO DUP2 MSTORE PUSH1 0x20 ADD PUSH1 0x0 DUP3 ADD PUSH1 0x4 SWAP1 SLOAD SWAP1 PUSH2 0x100 EXP SWAP1 DIV PUSH1 0xFF AND ISZERO ISZERO ISZERO ISZERO DUP2 MSTORE POP POP SWAP2 POP POP SWAP2 SWAP4 POP SWAP2 SWAP4 JUMP JUMPDEST DUP5 PUSH1 0x2 DUP2 PUSH1 0x40 MLOAD PUSH2 0x1113 SWAP2 SWAP1 PUSH2 0x28F3 JUMP JUMPDEST SWAP1 DUP2 MSTORE PUSH1 0x20 ADD PUSH1 0x40 MLOAD DUP1 SWAP2 SUB SWAP1 KECCAK256 PUSH1 0x0 SWAP1 SLOAD SWAP1 PUSH2 0x100 EXP SWAP1 DIV PUSH1 0xFF AND ISZERO PUSH2 0x116F JUMPI PUSH1 0x40 MLOAD PUSH32 0x8C379A000000000000000000000000000000000000000000000000000000000 DUP2 MSTORE PUSH1 0x4 ADD PUSH2 0x1166 SWAP1 PUSH2 0x2A33 JUMP JUMPDEST PUSH1 0x40 MLOAD DUP1 SWAP2 SUB SWAP1 REVERT JUMPDEST PUSH1 0x0 DUP1 DUP8 PUSH1 0x40 MLOAD PUSH2 0x1180 SWAP2 SWAP1 PUSH2 0x28F3 JUMP JUMPDEST SWAP1 DUP2 MSTORE PUSH1 0x20 ADD PUSH1 0x40 MLOAD DUP1 SWAP2 SUB SWAP1 KECCAK256 SWAP1 POP DUP6 PUSH1 0x0 ADD MLOAD DUP2 PUSH1 0x0 ADD SWAP1 DUP2 PUSH2 0x11A5 SWAP2 SWAP1 PUSH2 0x2BFF JUMP JUMPDEST POP DUP6 PUSH1 0x20 ADD MLOAD DUP2 PUSH1 0x1 ADD SWAP1 DUP2 PUSH2 0x11BB SWAP2 SWAP1 PUSH2 0x2BFF JUMP JUMPDEST POP DUP7 DUP2 PUSH1 0x2 ADD SWAP1 DUP2 PUSH2 0x11CD SWAP2 SWAP1 PUSH2 0x2BFF JUMP JUMPDEST POP DUP6 PUSH1 0x40 ADD MLOAD DUP2 PUSH1 0x3 ADD SWAP1 DUP2 PUSH2 0x11E3 SWAP2 SWAP1 PUSH2 0x2BFF JUMP JUMPDEST POP DUP6 PUSH1 0x60 ADD MLOAD DUP2 PUSH1 0x4 ADD SWAP1 DUP2 PUSH2 0x11F9 SWAP2 SWAP1 PUSH2 0x2BFF JUMP JUMPDEST POP DUP6 PUSH1 0x80 ADD MLOAD DUP2 PUSH1 0x5 ADD SWAP1 DUP2 PUSH2 0x120F SWAP2 SWAP1 PUSH2 0x2BFF JUMP JUMPDEST POP DUP6 PUSH1 0xA0 ADD MLOAD DUP2 PUSH1 0x8 ADD SWAP1 DUP2 PUSH2 0x1225 SWAP2 SWAP1 PUSH2 0x2BFF JUMP JUMPDEST POP DUP5 PUSH1 0x0 ADD MLOAD DUP2 PUSH1 0x6 ADD SWAP1 DUP2 PUSH2 0x123B SWAP2 SWAP1 PUSH2 0x2BFF JUMP JUMPDEST POP DUP5 PUSH1 0x20 ADD MLOAD DUP2 PUSH1 0x7 ADD SWAP1 DUP2 PUSH2 0x1251 SWAP2 SWAP1 PUSH2 0x2BFF JUMP JUMPDEST POP DUP5 PUSH1 0x40 ADD MLOAD DUP2 PUSH1 0x9 ADD SWAP1 DUP2 PUSH2 0x1267 SWAP2 SWAP1 PUSH2 0x2BFF JUMP JUMPDEST POP DUP4 PUSH1 0x0 ADD MLOAD DUP2 PUSH1 0xA ADD SWAP1 DUP2 PUSH2 0x127D SWAP2 SWAP1 PUSH2 0x2BFF JUMP JUMPDEST POP DUP4 PUSH1 0x20 ADD MLOAD DUP2 PUSH1 0xB ADD SWAP1 DUP2 PUSH2 0x1293 SWAP2 SWAP1 PUSH2 0x2BFF JUMP JUMPDEST POP DUP4 PUSH1 0x40 ADD MLOAD DUP2 PUSH1 0xC ADD SWAP1 DUP2 PUSH2 0x12A9 SWAP2 SWAP1 PUSH2 0x2BFF JUMP JUMPDEST POP DUP4 PUSH1 0x60 ADD MLOAD DUP2 PUSH1 0xD ADD SWAP1 DUP2 PUSH2 0x12BF SWAP2 SWAP1 PUSH2 0x2BFF JUMP JUMPDEST POP DUP4 PUSH1 0x80 ADD MLOAD DUP2 PUSH1 0xE ADD SWAP1 DUP2 PUSH2 0x12D5 SWAP2 SWAP1 PUSH2 0x2BFF JUMP JUMPDEST POP DUP5 PUSH1 0x60 ADD MLOAD DUP2 PUSH1 0xF ADD SWAP1 DUP2 PUSH2 0x12EB SWAP2 SWAP1 PUSH2 0x2BFF JUMP JUMPDEST POP DUP5 PUSH1 0x80 ADD MLOAD DUP2 PUSH1 0x10 ADD SWAP1 DUP1 MLOAD SWAP1 PUSH1 0x20 ADD SWAP1 PUSH2 0x1308 SWAP3 SWAP2 SWAP1 PUSH2 0x1934 JUMP JUMPDEST POP DUP5 PUSH1 0xA0 ADD MLOAD DUP2 PUSH1 0x11 ADD SWAP1 DUP2 PUSH2 0x131E SWAP2 SWAP1 PUSH2 0x2BFF JUMP JUMPDEST POP PUSH1 0x1 DUP2 PUSH1 0x12 ADD PUSH1 0x0 PUSH2 0x100 EXP DUP2 SLOAD DUP2 PUSH1 0xFF MUL NOT AND SWAP1 DUP4 ISZERO ISZERO MUL OR SWAP1 SSTORE POP DUP3 DUP2 PUSH1 0x14 ADD PUSH1 0x0 DUP3 ADD MLOAD DUP2 PUSH1 0x0 ADD PUSH1 0x0 PUSH2 0x100 EXP DUP2 SLOAD DUP2 PUSH1 0xFF MUL NOT AND SWAP1 DUP4 ISZERO ISZERO MUL OR SWAP1 SSTORE POP PUSH1 0x20 DUP3 ADD MLOAD DUP2 PUSH1 0x0 ADD PUSH1 0x1 PUSH2 0x100 EXP DUP2 SLOAD DUP2 PUSH1 0xFF MUL NOT AND SWAP1 DUP4 ISZERO ISZERO MUL OR SWAP1 SSTORE POP PUSH1 0x40 DUP3 ADD MLOAD DUP2 PUSH1 0x0 ADD PUSH1 0x2 PUSH2 0x100 EXP DUP2 SLOAD DUP2 PUSH1 0xFF MUL NOT AND SWAP1 DUP4 ISZERO ISZERO MUL OR SWAP1 SSTORE POP PUSH1 0x60 DUP3 ADD MLOAD DUP2 PUSH1 0x0 ADD PUSH1 0x3 PUSH2 0x100 EXP DUP2 SLOAD DUP2 PUSH1 0xFF MUL NOT AND SWAP1 DUP4 ISZERO ISZERO MUL OR SWAP1 SSTORE POP PUSH1 0x80 DUP3 ADD MLOAD DUP2 PUSH1 0x0 ADD PUSH1 0x4 PUSH2 0x100 EXP DUP2 SLOAD DUP2 PUSH1 0xFF MUL NOT AND SWAP1 DUP4 ISZERO ISZERO MUL OR SWAP1 SSTORE POP SWAP1 POP POP PUSH1 0x1 PUSH1 0x2 DUP9 PUSH1 0x40 MLOAD PUSH2 0x13F6 SWAP2 SWAP1 PUSH2 0x28F3 JUMP JUMPDEST SWAP1 DUP2 MSTORE PUSH1 0x20 ADD PUSH1 0x40 MLOAD DUP1 SWAP2 SUB SWAP1 KECCAK256 PUSH1 0x0 PUSH2 0x100 EXP DUP2 SLOAD DUP2 PUSH1 0xFF MUL NOT AND SWAP1 DUP4 ISZERO ISZERO MUL OR SWAP1 SSTORE POP DUP7 PUSH1 0x1 PUSH1 0x0 CALLER PUSH20 0xFFFFFFFFFFFFFFFFFFFFFFFFFFFFFFFFFFFFFFFF AND PUSH20 0xFFFFFFFFFFFFFFFFFFFFFFFFFFFFFFFFFFFFFFFF AND DUP2 MSTORE PUSH1 0x20 ADD SWAP1 DUP2 MSTORE PUSH1 0x20 ADD PUSH1 0x0 KECCAK256 SWAP1 DUP2 PUSH2 0x1467 SWAP2 SWAP1 PUSH2 0x2BFF JUMP JUMPDEST POP POP POP POP POP POP POP POP JUMP JUMPDEST PUSH1 0x0 DUP7 PUSH1 0x40 MLOAD PUSH2 0x1481 SWAP2 SWAP1 PUSH2 0x28F3 JUMP JUMPDEST SWAP1 DUP2 MSTORE PUSH1 0x20 ADD PUSH1 0x40 MLOAD DUP1 SWAP2 SUB SWAP1 KECCAK256 PUSH1 0x12 ADD PUSH1 0x0 SWAP1 SLOAD SWAP1 PUSH2 0x100 EXP SWAP1 DIV PUSH1 0xFF AND PUSH2 0x14DF JUMPI PUSH1 0x40 MLOAD PUSH32 0x8C379A000000000000000000000000000000000000000000000000000000000 DUP2 MSTORE PUSH1 0x4 ADD PUSH2 0x14D6 SWAP1 PUSH2 0x2967 JUMP JUMPDEST PUSH1 0x40 MLOAD DUP1 SWAP2 SUB SWAP1 REVERT JUMPDEST PUSH1 0x0 DUP1 DUP8 PUSH1 0x40 MLOAD PUSH2 0x14F0 SWAP2 SWAP1 PUSH2 0x28F3 JUMP JUMPDEST SWAP1 DUP2 MSTORE PUSH1 0x20 ADD PUSH1 0x40 MLOAD DUP1 SWAP2 SUB SWAP1 KECCAK256 SWAP1 POP DUP6 DUP2 PUSH1 0x14 ADD PUSH1 0x0 ADD PUSH1 0x0 PUSH2 0x100 EXP DUP2 SLOAD DUP2 PUSH1 0xFF MUL NOT AND SWAP1 DUP4 ISZERO ISZERO MUL OR SWAP1 SSTORE POP DUP5 DUP2 PUSH1 0x14 ADD PUSH1 0x0 ADD PUSH1 0x1 PUSH2 0x100 EXP DUP2 SLOAD DUP2 PUSH1 0xFF MUL NOT AND SWAP1 DUP4 ISZERO ISZERO MUL OR SWAP1 SSTORE POP DUP4 DUP2 PUSH1 0x14 ADD PUSH1 0x0 ADD PUSH1 0x2 PUSH2 0x100 EXP DUP2 SLOAD DUP2 PUSH1 0xFF MUL NOT AND SWAP1 DUP4 ISZERO ISZERO MUL OR SWAP1 SSTORE POP DUP3 DUP2 PUSH1 0x14 ADD PUSH1 0x0 ADD PUSH1 0x3 PUSH2 0x100 EXP DUP2 SLOAD DUP2 PUSH1 0xFF MUL NOT AND SWAP1 DUP4 ISZERO ISZERO MUL OR SWAP1 SSTORE POP DUP2 DUP2 PUSH1 0x14 ADD PUSH1 0x0 ADD PUSH1 0x4 PUSH2 0x100 EXP DUP2 SLOAD DUP2 PUSH1 0xFF MUL NOT AND SWAP1 DUP4 ISZERO ISZERO MUL OR SWAP1 SSTORE POP POP POP POP POP POP POP POP JUMP JUMPDEST PUSH1 0x0 DUP6 PUSH1 0x40 MLOAD PUSH2 0x15B4 SWAP2 SWAP1 PUSH2 0x28F3 JUMP JUMPDEST SWAP1 DUP2 MSTORE PUSH1 0x20 ADD PUSH1 0x40 MLOAD DUP1 SWAP2 SUB SWAP1 KECCAK256 PUSH1 0x12 ADD PUSH1 0x0 SWAP1 SLOAD SWAP1 PUSH2 0x100 EXP SWAP1 DIV PUSH1 0xFF AND PUSH2 0x1612 JUMPI PUSH1 0x40 MLOAD PUSH32 0x8C379A000000000000000000000000000000000000000000000000000000000 DUP2 MSTORE PUSH1 0x4 ADD PUSH2 0x1609 SWAP1 PUSH2 0x2967 JUMP JUMPDEST PUSH1 0x40 MLOAD DUP1 SWAP2 SUB SWAP1 REVERT JUMPDEST PUSH1 0x0 DUP1 DUP7 PUSH1 0x40 MLOAD PUSH2 0x1623 SWAP2 SWAP1 PUSH2 0x28F3 JUMP JUMPDEST SWAP1 DUP2 MSTORE PUSH1 0x20 ADD PUSH1 0x40 MLOAD DUP1 SWAP2 SUB SWAP1 KECCAK256 SWAP1 POP DUP5 PUSH1 0x0 ADD MLOAD DUP2 PUSH1 0x0 ADD SWAP1 DUP2 PUSH2 0x1648 SWAP2 SWAP1 PUSH2 0x2BFF JUMP JUMPDEST POP DUP5 PUSH1 0x20 ADD MLOAD DUP2 PUSH1 0x1 ADD SWAP1 DUP2 PUSH2 0x165E SWAP2 SWAP1 PUSH2 0x2BFF JUMP JUMPDEST POP DUP5 PUSH1 0x40 ADD MLOAD DUP2 PUSH1 0x3 ADD SWAP1 DUP2 PUSH2 0x1674 SWAP2 SWAP1 PUSH2 0x2BFF JUMP JUMPDEST POP DUP5 PUSH1 0x60 ADD MLOAD DUP2 PUSH1 0x4 ADD SWAP1 DUP2 PUSH2 0x168A SWAP2 SWAP1 PUSH2 0x2BFF JUMP JUMPDEST POP DUP5 PUSH1 0x80 ADD MLOAD DUP2 PUSH1 0x5 ADD SWAP1 DUP2 PUSH2 0x16A0 SWAP2 SWAP1 PUSH2 0x2BFF JUMP JUMPDEST POP DUP5 PUSH1 0xA0 ADD MLOAD DUP2 PUSH1 0x8 ADD SWAP1 DUP2 PUSH2 0x16B6 SWAP2 SWAP1 PUSH2 0x2BFF JUMP JUMPDEST POP DUP4 PUSH1 0x0 ADD MLOAD DUP2 PUSH1 0x6 ADD SWAP1 DUP2 PUSH2 0x16CC SWAP2 SWAP1 PUSH2 0x2BFF JUMP JUMPDEST POP DUP4 PUSH1 0x20 ADD MLOAD DUP2 PUSH1 0x7 ADD SWAP1 DUP2 PUSH2 0x16E2 SWAP2 SWAP1 PUSH2 0x2BFF JUMP JUMPDEST POP DUP4 PUSH1 0x40 ADD MLOAD DUP2 PUSH1 0x9 ADD SWAP1 DUP2 PUSH2 0x16F8 SWAP2 SWAP1 PUSH2 0x2BFF JUMP JUMPDEST POP DUP3 PUSH1 0x0 ADD MLOAD DUP2 PUSH1 0xA ADD SWAP1 DUP2 PUSH2 0x170E SWAP2 SWAP1 PUSH2 0x2BFF JUMP JUMPDEST POP DUP3 PUSH1 0x20 ADD MLOAD DUP2 PUSH1 0xB ADD SWAP1 DUP2 PUSH2 0x1724 SWAP2 SWAP1 PUSH2 0x2BFF JUMP JUMPDEST POP DUP3 PUSH1 0x40 ADD MLOAD DUP2 PUSH1 0xC ADD SWAP1 DUP2 PUSH2 0x173A SWAP2 SWAP1 PUSH2 0x2BFF JUMP JUMPDEST POP DUP3 PUSH1 0x60 ADD MLOAD DUP2 PUSH1 0xD ADD SWAP1 DUP2 PUSH2 0x1750 SWAP2 SWAP1 PUSH2 0x2BFF JUMP JUMPDEST POP DUP3 PUSH1 0x80 ADD MLOAD DUP2 PUSH1 0xE ADD SWAP1 DUP2 PUSH2 0x1766 SWAP2 SWAP1 PUSH2 0x2BFF JUMP JUMPDEST POP DUP4 PUSH1 0x60 ADD MLOAD DUP2 PUSH1 0xF ADD SWAP1 DUP2 PUSH2 0x177C SWAP2 SWAP1 PUSH2 0x2BFF JUMP JUMPDEST POP DUP4 PUSH1 0x80 ADD MLOAD DUP2 PUSH1 0x10 ADD SWAP1 DUP1 MLOAD SWAP1 PUSH1 0x20 ADD SWAP1 PUSH2 0x1799 SWAP3 SWAP2 SWAP1 PUSH2 0x1934 JUMP JUMPDEST POP DUP4 PUSH1 0xA0 ADD MLOAD DUP2 PUSH1 0x11 ADD SWAP1 DUP2 PUSH2 0x17AF SWAP2 SWAP1 PUSH2 0x2BFF JUMP JUMPDEST POP DUP2 DUP2 PUSH1 0x14 ADD PUSH1 0x0 DUP3 ADD MLOAD DUP2 PUSH1 0x0 ADD PUSH1 0x0 PUSH2 0x100 EXP DUP2 SLOAD DUP2 PUSH1 0xFF MUL NOT AND SWAP1 DUP4 ISZERO ISZERO MUL OR SWAP1 SSTORE POP PUSH1 0x20 DUP3 ADD MLOAD DUP2 PUSH1 0x0 ADD PUSH1 0x1 PUSH2 0x100 EXP DUP2 SLOAD DUP2 PUSH1 0xFF MUL NOT AND SWAP1 DUP4 ISZERO ISZERO MUL OR SWAP1 SSTORE POP PUSH1 0x40 DUP3 ADD MLOAD DUP2 PUSH1 0x0 ADD PUSH1 0x2 PUSH2 0x100 EXP DUP2 SLOAD DUP2 PUSH1 0xFF MUL NOT AND SWAP1 DUP4 ISZERO ISZERO MUL OR SWAP1 SSTORE POP PUSH1 0x60 DUP3 ADD MLOAD DUP2 PUSH1 0x0 ADD PUSH1 0x3 PUSH2 0x100 EXP DUP2 SLOAD DUP2 PUSH1 0xFF MUL NOT AND SWAP1 DUP4 ISZERO ISZERO MUL OR SWAP1 SSTORE POP PUSH1 0x80 DUP3 ADD MLOAD DUP2 PUSH1 0x0 ADD PUSH1 0x4 PUSH2 0x100 EXP DUP2 SLOAD DUP2 PUSH1 0xFF MUL NOT AND SWAP1 DUP4 ISZERO ISZERO MUL OR SWAP1 SSTORE POP SWAP1 POP POP POP POP POP POP POP POP JUMP JUMPDEST PUSH1 0x40 MLOAD DUP1 PUSH1 0xA0 ADD PUSH1 0x40 MSTORE DUP1 PUSH1 0x0 ISZERO ISZERO DUP2 MSTORE PUSH1 0x20 ADD PUSH1 0x0 ISZERO ISZERO DUP2 MSTORE PUSH1 0x20 ADD PUSH1 0x0 ISZERO ISZERO DUP2 MSTORE PUSH1 0x20 ADD PUSH1 0x0 ISZERO ISZERO DUP2 MSTORE PUSH1 0x20 ADD PUSH1 0x0 ISZERO ISZERO DUP2 MSTORE POP SWAP1 JUMP JUMPDEST PUSH1 0x40 MLOAD DUP1 PUSH1 0xC0 ADD PUSH1 0x40 MSTORE DUP1 PUSH1 0x60 DUP2 MSTORE PUSH1 0x20 ADD PUSH1 0x60 DUP2 MSTORE PUSH1 0x20 ADD PUSH1 0x60 DUP2 MSTORE PUSH1 0x20 ADD PUSH1 0x60 DUP2 MSTORE PUSH1 0x20 ADD PUSH1 0x60 DUP2 MSTORE PUSH1 0x20 ADD PUSH1 0x60 DUP2 MSTORE POP SWAP1 JUMP JUMPDEST PUSH1 0x40 MLOAD DUP1 PUSH1 0xC0 ADD PUSH1 0x40 MSTORE DUP1 PUSH1 0x60 DUP2 MSTORE PUSH1 0x20 ADD PUSH1 0x60 DUP2 MSTORE PUSH1 0x20 ADD PUSH1 0x60 DUP2 MSTORE PUSH1 0x20 ADD PUSH1 0x60 DUP2 MSTORE PUSH1 0x20 ADD PUSH1 0x60 DUP2 MSTORE PUSH1 0x20 ADD PUSH1 0x60 DUP2 MSTORE POP SWAP1 JUMP JUMPDEST PUSH1 0x40 MLOAD DUP1 PUSH1 0xA0 ADD PUSH1 0x40 MSTORE DUP1 PUSH1 0x60 DUP2 MSTORE PUSH1 0x20 ADD PUSH1 0x60 DUP2 MSTORE PUSH1 0x20 ADD PUSH1 0x60 DUP2 MSTORE PUSH1 0x20 ADD PUSH1 0x60 DUP2 MSTORE PUSH1 0x20 ADD PUSH1 0x60 DUP2 MSTORE POP SWAP1 JUMP JUMPDEST DUP3 DUP1 SLOAD DUP3 DUP3 SSTORE SWAP1 PUSH1 0x0 MSTORE PUSH1 0x20 PUSH1 0x0 KECCAK256 SWAP1 DUP2 ADD SWAP3 DUP3 ISZERO PUSH2 0x197C JUMPI SWAP2 PUSH1 0x20 MUL DUP3 ADD JUMPDEST DUP3 DUP2 GT ISZERO PUSH2 0x197B JUMPI DUP3 MLOAD DUP3 SWAP1 DUP2 PUSH2 0x196B SWAP2 SWAP1 PUSH2 0x2BFF JUMP JUMPDEST POP SWAP2 PUSH1 0x20 ADD SWAP2 SWAP1 PUSH1 0x1 ADD SWAP1 PUSH2 0x1954 JUMP JUMPDEST JUMPDEST POP SWAP1 POP PUSH2 0x1989 SWAP2 SWAP1 PUSH2 0x198D JUMP JUMPDEST POP SWAP1 JUMP JUMPDEST JUMPDEST DUP1 DUP3 GT ISZERO PUSH2 0x19AD JUMPI PUSH1 0x0 DUP2 DUP2 PUSH2 0x19A4 SWAP2 SWAP1 PUSH2 0x19B1 JUMP JUMPDEST POP PUSH1 0x1 ADD PUSH2 0x198E JUMP JUMPDEST POP SWAP1 JUMP JUMPDEST POP DUP1 SLOAD PUSH2 0x19BD SWAP1 PUSH2 0x29B6 JUMP JUMPDEST PUSH1 0x0 DUP3 SSTORE DUP1 PUSH1 0x1F LT PUSH2 0x19CF JUMPI POP PUSH2 0x19EE JUMP JUMPDEST PUSH1 0x1F ADD PUSH1 0x20 SWAP1 DIV SWAP1 PUSH1 0x0 MSTORE PUSH1 0x20 PUSH1 0x0 KECCAK256 SWAP1 DUP2 ADD SWAP1 PUSH2 0x19ED SWAP2 SWAP1 PUSH2 0x19F1 JUMP JUMPDEST JUMPDEST POP JUMP JUMPDEST JUMPDEST DUP1 DUP3 GT ISZERO PUSH2 0x1A0A JUMPI PUSH1 0x0 DUP2 PUSH1 0x0 SWAP1 SSTORE POP PUSH1 0x1 ADD PUSH2 0x19F2 JUMP JUMPDEST POP SWAP1 JUMP JUMPDEST PUSH1 0x0 PUSH1 0x40 MLOAD SWAP1 POP SWAP1 JUMP JUMPDEST PUSH1 0x0 DUP1 REVERT JUMPDEST PUSH1 0x0 DUP1 REVERT JUMPDEST PUSH1 0x0 DUP1 REVERT JUMPDEST PUSH1 0x0 DUP1 REVERT JUMPDEST PUSH1 0x0 PUSH1 0x1F NOT PUSH1 0x1F DUP4 ADD AND SWAP1 POP SWAP2 SWAP1 POP JUMP JUMPDEST PUSH32 0x4E487B7100000000000000000000000000000000000000000000000000000000 PUSH1 0x0 MSTORE PUSH1 0x41 PUSH1 0x4 MSTORE PUSH1 0x24 PUSH1 0x0 REVERT JUMPDEST PUSH2 0x1A75 DUP3 PUSH2 0x1A2C JUMP JUMPDEST DUP2 ADD DUP2 DUP2 LT PUSH8 0xFFFFFFFFFFFFFFFF DUP3 GT OR ISZERO PUSH2 0x1A94 JUMPI PUSH2 0x1A93 PUSH2 0x1A3D JUMP JUMPDEST JUMPDEST DUP1 PUSH1 0x40 MSTORE POP POP POP JUMP JUMPDEST PUSH1 0x0 PUSH2 0x1AA7 PUSH2 0x1A0E JUMP JUMPDEST SWAP1 POP PUSH2 0x1AB3 DUP3 DUP3 PUSH2 0x1A6C JUMP JUMPDEST SWAP2 SWAP1 POP JUMP JUMPDEST PUSH1 0x0 PUSH8 0xFFFFFFFFFFFFFFFF DUP3 GT ISZERO PUSH2 0x1AD3 JUMPI PUSH2 0x1AD2 PUSH2 0x1A3D JUMP JUMPDEST JUMPDEST PUSH2 0x1ADC DUP3 PUSH2 0x1A2C JUMP JUMPDEST SWAP1 POP PUSH1 0x20 DUP2 ADD SWAP1 POP SWAP2 SWAP1 POP JUMP JUMPDEST DUP3 DUP2 DUP4 CALLDATACOPY PUSH1 0x0 DUP4 DUP4 ADD MSTORE POP POP POP JUMP JUMPDEST PUSH1 0x0 PUSH2 0x1B0B PUSH2 0x1B06 DUP5 PUSH2 0x1AB8 JUMP JUMPDEST PUSH2 0x1A9D JUMP JUMPDEST SWAP1 POP DUP3 DUP2 MSTORE PUSH1 0x20 DUP2 ADD DUP5 DUP5 DUP5 ADD GT ISZERO PUSH2 0x1B27 JUMPI PUSH2 0x1B26 PUSH2 0x1A27 JUMP JUMPDEST JUMPDEST PUSH2 0x1B32 DUP5 DUP3 DUP6 PUSH2 0x1AE9 JUMP JUMPDEST POP SWAP4 SWAP3 POP POP POP JUMP JUMPDEST PUSH1 0x0 DUP3 PUSH1 0x1F DUP4 ADD SLT PUSH2 0x1B4F JUMPI PUSH2 0x1B4E PUSH2 0x1A22 JUMP JUMPDEST JUMPDEST DUP2 CALLDATALOAD PUSH2 0x1B5F DUP5 DUP3 PUSH1 0x20 DUP7 ADD PUSH2 0x1AF8 JUMP JUMPDEST SWAP2 POP POP SWAP3 SWAP2 POP POP JUMP JUMPDEST PUSH1 0x0 PUSH1 0x20 DUP3 DUP5 SUB SLT ISZERO PUSH2 0x1B7E JUMPI PUSH2 0x1B7D PUSH2 0x1A18 JUMP JUMPDEST JUMPDEST PUSH1 0x0 DUP3 ADD CALLDATALOAD PUSH8 0xFFFFFFFFFFFFFFFF DUP2 GT ISZERO PUSH2 0x1B9C JUMPI PUSH2 0x1B9B PUSH2 0x1A1D JUMP JUMPDEST JUMPDEST PUSH2 0x1BA8 DUP5 DUP3 DUP6 ADD PUSH2 0x1B3A JUMP JUMPDEST SWAP2 POP POP SWAP3 SWAP2 POP POP JUMP JUMPDEST PUSH1 0x0 DUP2 ISZERO ISZERO SWAP1 POP SWAP2 SWAP1 POP JUMP JUMPDEST PUSH2 0x1BC6 DUP2 PUSH2 0x1BB1 JUMP JUMPDEST DUP3 MSTORE POP POP JUMP JUMPDEST PUSH1 0xA0 DUP3 ADD PUSH1 0x0 DUP3 ADD MLOAD PUSH2 0x1BE2 PUSH1 0x0 DUP6 ADD DUP3 PUSH2 0x1BBD JUMP JUMPDEST POP PUSH1 0x20 DUP3 ADD MLOAD PUSH2 0x1BF5 PUSH1 0x20 DUP6 ADD DUP3 PUSH2 0x1BBD JUMP JUMPDEST POP PUSH1 0x40 DUP3 ADD MLOAD PUSH2 0x1C08 PUSH1 0x40 DUP6 ADD DUP3 PUSH2 0x1BBD JUMP JUMPDEST POP PUSH1 0x60 DUP3 ADD MLOAD PUSH2 0x1C1B PUSH1 0x60 DUP6 ADD DUP3 PUSH2 0x1BBD JUMP JUMPDEST POP PUSH1 0x80 DUP3 ADD MLOAD PUSH2 0x1C2E PUSH1 0x80 DUP6 ADD DUP3 PUSH2 0x1BBD JUMP JUMPDEST POP POP POP POP JUMP JUMPDEST PUSH1 0x0 PUSH1 0xA0 DUP3 ADD SWAP1 POP PUSH2 0x1C49 PUSH1 0x0 DUP4 ADD DUP5 PUSH2 0x1BCC JUMP JUMPDEST SWAP3 SWAP2 POP POP JUMP JUMPDEST PUSH1 0x0 DUP2 SWAP1 POP SWAP2 SWAP1 POP JUMP JUMPDEST PUSH2 0x1C62 DUP2 PUSH2 0x1C4F JUMP JUMPDEST DUP2 EQ PUSH2 0x1C6D JUMPI PUSH1 0x0 DUP1 REVERT JUMPDEST POP JUMP JUMPDEST PUSH1 0x0 DUP2 CALLDATALOAD SWAP1 POP PUSH2 0x1C7F DUP2 PUSH2 0x1C59 JUMP JUMPDEST SWAP3 SWAP2 POP POP JUMP JUMPDEST PUSH1 0x0 DUP1 PUSH1 0x40 DUP4 DUP6 SUB SLT ISZERO PUSH2 0x1C9C JUMPI PUSH2 0x1C9B PUSH2 0x1A18 JUMP JUMPDEST JUMPDEST PUSH1 0x0 DUP4 ADD CALLDATALOAD PUSH8 0xFFFFFFFFFFFFFFFF DUP2 GT ISZERO PUSH2 0x1CBA JUMPI PUSH2 0x1CB9 PUSH2 0x1A1D JUMP JUMPDEST JUMPDEST PUSH2 0x1CC6 DUP6 DUP3 DUP7 ADD PUSH2 0x1B3A JUMP JUMPDEST SWAP3 POP POP PUSH1 0x20 PUSH2 0x1CD7 DUP6 DUP3 DUP7 ADD PUSH2 0x1C70 JUMP JUMPDEST SWAP2 POP POP SWAP3 POP SWAP3 SWAP1 POP JUMP JUMPDEST PUSH1 0x0 DUP2 MLOAD SWAP1 POP SWAP2 SWAP1 POP JUMP JUMPDEST PUSH1 0x0 DUP3 DUP3 MSTORE PUSH1 0x20 DUP3 ADD SWAP1 POP SWAP3 SWAP2 POP POP JUMP JUMPDEST PUSH1 0x0 DUP2 SWAP1 POP PUSH1 0x20 DUP3 ADD SWAP1 POP SWAP2 SWAP1 POP JUMP JUMPDEST PUSH2 0x1D16 DUP2 PUSH2 0x1C4F JUMP JUMPDEST DUP3 MSTORE POP POP JUMP JUMPDEST PUSH1 0x0 PUSH2 0x1D28 DUP4 DUP4 PUSH2 0x1D0D JUMP JUMPDEST PUSH1 0x20 DUP4 ADD SWAP1 POP SWAP3 SWAP2 POP POP JUMP JUMPDEST PUSH1 0x0 PUSH1 0x20 DUP3 ADD SWAP1 POP SWAP2 SWAP1 POP JUMP JUMPDEST PUSH1 0x0 PUSH2 0x1D4C DUP3 PUSH2 0x1CE1 JUMP JUMPDEST PUSH2 0x1D56 DUP2 DUP6 PUSH2 0x1CEC JUMP JUMPDEST SWAP4 POP PUSH2 0x1D61 DUP4 PUSH2 0x1CFD JUMP JUMPDEST DUP1 PUSH1 0x0 JUMPDEST DUP4 DUP2 LT ISZERO PUSH2 0x1D92 JUMPI DUP2 MLOAD PUSH2 0x1D79 DUP9 DUP3 PUSH2 0x1D1C JUMP JUMPDEST SWAP8 POP PUSH2 0x1D84 DUP4 PUSH2 0x1D34 JUMP JUMPDEST SWAP3 POP POP PUSH1 0x1 DUP2 ADD SWAP1 POP PUSH2 0x1D65 JUMP JUMPDEST POP DUP6 SWAP4 POP POP POP POP SWAP3 SWAP2 POP POP JUMP JUMPDEST PUSH1 0x0 PUSH1 0x20 DUP3 ADD SWAP1 POP DUP2 DUP2 SUB PUSH1 0x0 DUP4 ADD MSTORE PUSH2 0x1DB9 DUP2 DUP5 PUSH2 0x1D41 JUMP JUMPDEST SWAP1 POP SWAP3 SWAP2 POP POP JUMP JUMPDEST PUSH1 0x0 PUSH20 0xFFFFFFFFFFFFFFFFFFFFFFFFFFFFFFFFFFFFFFFF DUP3 AND SWAP1 POP SWAP2 SWAP1 POP JUMP JUMPDEST PUSH1 0x0 PUSH2 0x1DEC DUP3 PUSH2 0x1DC1 JUMP JUMPDEST SWAP1 POP SWAP2 SWAP1 POP JUMP JUMPDEST PUSH2 0x1DFC DUP2 PUSH2 0x1DE1 JUMP JUMPDEST DUP2 EQ PUSH2 0x1E07 JUMPI PUSH1 0x0 DUP1 REVERT JUMPDEST POP JUMP JUMPDEST PUSH1 0x0 DUP2 CALLDATALOAD SWAP1 POP PUSH2 0x1E19 DUP2 PUSH2 0x1DF3 JUMP JUMPDEST SWAP3 SWAP2 POP POP JUMP JUMPDEST PUSH1 0x0 PUSH1 0x20 DUP3 DUP5 SUB SLT ISZERO PUSH2 0x1E35 JUMPI PUSH2 0x1E34 PUSH2 0x1A18 JUMP JUMPDEST JUMPDEST PUSH1 0x0 PUSH2 0x1E43 DUP5 DUP3 DUP6 ADD PUSH2 0x1E0A JUMP JUMPDEST SWAP2 POP POP SWAP3 SWAP2 POP POP JUMP JUMPDEST PUSH1 0x0 DUP2 MLOAD SWAP1 POP SWAP2 SWAP1 POP JUMP JUMPDEST PUSH1 0x0 DUP3 DUP3 MSTORE PUSH1 0x20 DUP3 ADD SWAP1 POP SWAP3 SWAP2 POP POP JUMP JUMPDEST PUSH1 0x0 JUMPDEST DUP4 DUP2 LT ISZERO PUSH2 0x1E86 JUMPI DUP1 DUP3 ADD MLOAD DUP2 DUP5 ADD MSTORE PUSH1 0x20 DUP2 ADD SWAP1 POP PUSH2 0x1E6B JUMP JUMPDEST PUSH1 0x0 DUP5 DUP5 ADD MSTORE POP POP POP POP JUMP JUMPDEST PUSH1 0x0 PUSH2 0x1E9D DUP3 PUSH2 0x1E4C JUMP JUMPDEST PUSH2 0x1EA7 DUP2 DUP6 PUSH2 0x1E57 JUMP JUMPDEST SWAP4 POP PUSH2 0x1EB7 DUP2 DUP6 PUSH1 0x20 DUP7 ADD PUSH2 0x1E68 JUMP JUMPDEST PUSH2 0x1EC0 DUP2 PUSH2 0x1A2C JUMP JUMPDEST DUP5 ADD SWAP2 POP POP SWAP3 SWAP2 POP POP JUMP JUMPDEST PUSH1 0x0 PUSH1 0xC0 DUP4 ADD PUSH1 0x0 DUP4 ADD MLOAD DUP5 DUP3 SUB PUSH1 0x0 DUP7 ADD MSTORE PUSH2 0x1EE8 DUP3 DUP3 PUSH2 0x1E92 JUMP JUMPDEST SWAP2 POP POP PUSH1 0x20 DUP4 ADD MLOAD DUP5 DUP3 SUB PUSH1 0x20 DUP7 ADD MSTORE PUSH2 0x1F02 DUP3 DUP3 PUSH2 0x1E92 JUMP JUMPDEST SWAP2 POP POP PUSH1 0x40 DUP4 ADD MLOAD DUP5 DUP3 SUB PUSH1 0x40 DUP7 ADD MSTORE PUSH2 0x1F1C DUP3 DUP3 PUSH2 0x1E92 JUMP JUMPDEST SWAP2 POP POP PUSH1 0x60 DUP4 ADD MLOAD DUP5 DUP3 SUB PUSH1 0x60 DUP7 ADD MSTORE PUSH2 0x1F36 DUP3 DUP3 PUSH2 0x1E92 JUMP JUMPDEST SWAP2 POP POP PUSH1 0x80 DUP4 ADD MLOAD DUP5 DUP3 SUB PUSH1 0x80 DUP7 ADD MSTORE PUSH2 0x1F50 DUP3 DUP3 PUSH2 0x1E92 JUMP JUMPDEST SWAP2 POP POP PUSH1 0xA0 DUP4 ADD MLOAD DUP5 DUP3 SUB PUSH1 0xA0 DUP7 ADD MSTORE PUSH2 0x1F6A DUP3 DUP3 PUSH2 0x1E92 JUMP JUMPDEST SWAP2 POP POP DUP1 SWAP2 POP POP SWAP3 SWAP2 POP POP JUMP JUMPDEST PUSH1 0x0 DUP2 MLOAD SWAP1 POP SWAP2 SWAP1 POP JUMP JUMPDEST PUSH1 0x0 DUP3 DUP3 MSTORE PUSH1 0x20 DUP3 ADD SWAP1 POP SWAP3 SWAP2 POP POP JUMP JUMPDEST PUSH1 0x0 DUP2 SWAP1 POP PUSH1 0x20 DUP3 ADD SWAP1 POP SWAP2 SWAP1 POP JUMP JUMPDEST PUSH1 0x0 PUSH2 0x1FAF DUP4 DUP4 PUSH2 0x1E92 JUMP JUMPDEST SWAP1 POP SWAP3 SWAP2 POP POP JUMP JUMPDEST PUSH1 0x0 PUSH1 0x20 DUP3 ADD SWAP1 POP SWAP2 SWAP1 POP JUMP JUMPDEST PUSH1 0x0 PUSH2 0x1FCF DUP3 PUSH2 0x1F77 JUMP JUMPDEST PUSH2 0x1FD9 DUP2 DUP6 PUSH2 0x1F82 JUMP JUMPDEST SWAP4 POP DUP4 PUSH1 0x20 DUP3 MUL DUP6 ADD PUSH2 0x1FEB DUP6 PUSH2 0x1F93 JUMP JUMPDEST DUP1 PUSH1 0x0 JUMPDEST DUP6 DUP2 LT ISZERO PUSH2 0x2027 JUMPI DUP5 DUP5 SUB DUP10 MSTORE DUP2 MLOAD PUSH2 0x2008 DUP6 DUP3 PUSH2 0x1FA3 JUMP JUMPDEST SWAP5 POP PUSH2 0x2013 DUP4 PUSH2 0x1FB7 JUMP JUMPDEST SWAP3 POP PUSH1 0x20 DUP11 ADD SWAP10 POP POP PUSH1 0x1 DUP2 ADD SWAP1 POP PUSH2 0x1FEF JUMP JUMPDEST POP DUP3 SWAP8 POP DUP8 SWAP6 POP POP POP POP POP POP SWAP3 SWAP2 POP POP JUMP JUMPDEST PUSH1 0x0 PUSH1 0xC0 DUP4 ADD PUSH1 0x0 DUP4 ADD MLOAD DUP5 DUP3 SUB PUSH1 0x0 DUP7 ADD MSTORE PUSH2 0x2056 DUP3 DUP3 PUSH2 0x1E92 JUMP JUMPDEST SWAP2 POP POP PUSH1 0x20 DUP4 ADD MLOAD DUP5 DUP3 SUB PUSH1 0x20 DUP7 ADD MSTORE PUSH2 0x2070 DUP3 DUP3 PUSH2 0x1E92 JUMP JUMPDEST SWAP2 POP POP PUSH1 0x40 DUP4 ADD MLOAD DUP5 DUP3 SUB PUSH1 0x40 DUP7 ADD MSTORE PUSH2 0x208A DUP3 DUP3 PUSH2 0x1E92 JUMP JUMPDEST SWAP2 POP POP PUSH1 0x60 DUP4 ADD MLOAD DUP5 DUP3 SUB PUSH1 0x60 DUP7 ADD MSTORE PUSH2 0x20A4 DUP3 DUP3 PUSH2 0x1E92 JUMP JUMPDEST SWAP2 POP POP PUSH1 0x80 DUP4 ADD MLOAD DUP5 DUP3 SUB PUSH1 0x80 DUP7 ADD MSTORE PUSH2 0x20BE DUP3 DUP3 PUSH2 0x1FC4 JUMP JUMPDEST SWAP2 POP POP PUSH1 0xA0 DUP4 ADD MLOAD DUP5 DUP3 SUB PUSH1 0xA0 DUP7 ADD MSTORE PUSH2 0x20D8 DUP3 DUP3 PUSH2 0x1E92 JUMP JUMPDEST SWAP2 POP POP DUP1 SWAP2 POP POP SWAP3 SWAP2 POP POP JUMP JUMPDEST PUSH1 0x0 PUSH1 0xA0 DUP4 ADD PUSH1 0x0 DUP4 ADD MLOAD DUP5 DUP3 SUB PUSH1 0x0 DUP7 ADD MSTORE PUSH2 0x2102 DUP3 DUP3 PUSH2 0x1E92 JUMP JUMPDEST SWAP2 POP POP PUSH1 0x20 DUP4 ADD MLOAD DUP5 DUP3 SUB PUSH1 0x20 DUP7 ADD MSTORE PUSH2 0x211C DUP3 DUP3 PUSH2 0x1E92 JUMP JUMPDEST SWAP2 POP POP PUSH1 0x40 DUP4 ADD MLOAD DUP5 DUP3 SUB PUSH1 0x40 DUP7 ADD MSTORE PUSH2 0x2136 DUP3 DUP3 PUSH2 0x1E92 JUMP JUMPDEST SWAP2 POP POP PUSH1 0x60 DUP4 ADD MLOAD DUP5 DUP3 SUB PUSH1 0x60 DUP7 ADD MSTORE PUSH2 0x2150 DUP3 DUP3 PUSH2 0x1E92 JUMP JUMPDEST SWAP2 POP POP PUSH1 0x80 DUP4 ADD MLOAD DUP5 DUP3 SUB PUSH1 0x80 DUP7 ADD MSTORE PUSH2 0x216A DUP3 DUP3 PUSH2 0x1E92 JUMP JUMPDEST SWAP2 POP POP DUP1 SWAP2 POP POP SWAP3 SWAP2 POP POP JUMP JUMPDEST PUSH1 0x0 PUSH2 0x100 DUP3 ADD SWAP1 POP DUP2 DUP2 SUB PUSH1 0x0 DUP4 ADD MSTORE PUSH2 0x2192 DUP2 DUP8 PUSH2 0x1ECB JUMP JUMPDEST SWAP1 POP DUP2 DUP2 SUB PUSH1 0x20 DUP4 ADD MSTORE PUSH2 0x21A6 DUP2 DUP7 PUSH2 0x2039 JUMP JUMPDEST SWAP1 POP DUP2 DUP2 SUB PUSH1 0x40 DUP4 ADD MSTORE PUSH2 0x21BA DUP2 DUP6 PUSH2 0x20E5 JUMP JUMPDEST SWAP1 POP PUSH2 0x21C9 PUSH1 0x60 DUP4 ADD DUP5 PUSH2 0x1BCC JUMP JUMPDEST SWAP6 SWAP5 POP POP POP POP POP JUMP JUMPDEST PUSH1 0x0 DUP1 REVERT JUMPDEST PUSH1 0x0 DUP1 REVERT JUMPDEST PUSH1 0x0 PUSH1 0xC0 DUP3 DUP5 SUB SLT ISZERO PUSH2 0x21F2 JUMPI PUSH2 0x21F1 PUSH2 0x21D2 JUMP JUMPDEST JUMPDEST PUSH2 0x21FC PUSH1 0xC0 PUSH2 0x1A9D JUMP JUMPDEST SWAP1 POP PUSH1 0x0 DUP3 ADD CALLDATALOAD PUSH8 0xFFFFFFFFFFFFFFFF DUP2 GT ISZERO PUSH2 0x221C JUMPI PUSH2 0x221B PUSH2 0x21D7 JUMP JUMPDEST JUMPDEST PUSH2 0x2228 DUP5 DUP3 DUP6 ADD PUSH2 0x1B3A JUMP JUMPDEST PUSH1 0x0 DUP4 ADD MSTORE POP PUSH1 0x20 DUP3 ADD CALLDATALOAD PUSH8 0xFFFFFFFFFFFFFFFF DUP2 GT ISZERO PUSH2 0x224C JUMPI PUSH2 0x224B PUSH2 0x21D7 JUMP JUMPDEST JUMPDEST PUSH2 0x2258 DUP5 DUP3 DUP6 ADD PUSH2 0x1B3A JUMP JUMPDEST PUSH1 0x20 DUP4 ADD MSTORE POP PUSH1 0x40 DUP3 ADD CALLDATALOAD PUSH8 0xFFFFFFFFFFFFFFFF DUP2 GT ISZERO PUSH2 0x227C JUMPI PUSH2 0x227B PUSH2 0x21D7 JUMP JUMPDEST JUMPDEST PUSH2 0x2288 DUP5 DUP3 DUP6 ADD PUSH2 0x1B3A JUMP JUMPDEST PUSH1 0x40 DUP4 ADD MSTORE POP PUSH1 0x60 DUP3 ADD CALLDATALOAD PUSH8 0xFFFFFFFFFFFFFFFF DUP2 GT ISZERO PUSH2 0x22AC JUMPI PUSH2 0x22AB PUSH2 0x21D7 JUMP JUMPDEST JUMPDEST PUSH2 0x22B8 DUP5 DUP3 DUP6 ADD PUSH2 0x1B3A JUMP JUMPDEST PUSH1 0x60 DUP4 ADD MSTORE POP PUSH1 0x80 DUP3 ADD CALLDATALOAD PUSH8 0xFFFFFFFFFFFFFFFF DUP2 GT ISZERO PUSH2 0x22DC JUMPI PUSH2 0x22DB PUSH2 0x21D7 JUMP JUMPDEST JUMPDEST PUSH2 0x22E8 DUP5 DUP3 DUP6 ADD PUSH2 0x1B3A JUMP JUMPDEST PUSH1 0x80 DUP4 ADD MSTORE POP PUSH1 0xA0 DUP3 ADD CALLDATALOAD PUSH8 0xFFFFFFFFFFFFFFFF DUP2 GT ISZERO PUSH2 0x230C JUMPI PUSH2 0x230B PUSH2 0x21D7 JUMP JUMPDEST JUMPDEST PUSH2 0x2318 DUP5 DUP3 DUP6 ADD PUSH2 0x1B3A JUMP JUMPDEST PUSH1 0xA0 DUP4 ADD MSTORE POP SWAP3 SWAP2 POP POP JUMP JUMPDEST PUSH1 0x0 PUSH8 0xFFFFFFFFFFFFFFFF DUP3 GT ISZERO PUSH2 0x233F JUMPI PUSH2 0x233E PUSH2 0x1A3D JUMP JUMPDEST JUMPDEST PUSH1 0x20 DUP3 MUL SWAP1 POP PUSH1 0x20 DUP2 ADD SWAP1 POP SWAP2 SWAP1 POP JUMP JUMPDEST PUSH1 0x0 DUP1 REVERT JUMPDEST PUSH1 0x0 PUSH2 0x2368 PUSH2 0x2363 DUP5 PUSH2 0x2324 JUMP JUMPDEST PUSH2 0x1A9D JUMP JUMPDEST SWAP1 POP DUP1 DUP4 DUP3 MSTORE PUSH1 0x20 DUP3 ADD SWAP1 POP PUSH1 0x20 DUP5 MUL DUP4 ADD DUP6 DUP2 GT ISZERO PUSH2 0x238B JUMPI PUSH2 0x238A PUSH2 0x2350 JUMP JUMPDEST JUMPDEST DUP4 JUMPDEST DUP2 DUP2 LT ISZERO PUSH2 0x23D2 JUMPI DUP1 CALLDATALOAD PUSH8 0xFFFFFFFFFFFFFFFF DUP2 GT ISZERO PUSH2 0x23B0 JUMPI PUSH2 0x23AF PUSH2 0x1A22 JUMP JUMPDEST JUMPDEST DUP1 DUP7 ADD PUSH2 0x23BD DUP10 DUP3 PUSH2 0x1B3A JUMP JUMPDEST DUP6 MSTORE PUSH1 0x20 DUP6 ADD SWAP5 POP POP POP PUSH1 0x20 DUP2 ADD SWAP1 POP PUSH2 0x238D JUMP JUMPDEST POP POP POP SWAP4 SWAP3 POP POP POP JUMP JUMPDEST PUSH1 0x0 DUP3 PUSH1 0x1F DUP4 ADD SLT PUSH2 0x23F1 JUMPI PUSH2 0x23F0 PUSH2 0x1A22 JUMP JUMPDEST JUMPDEST DUP2 CALLDATALOAD PUSH2 0x2401 DUP5 DUP3 PUSH1 0x20 DUP7 ADD PUSH2 0x2355 JUMP JUMPDEST SWAP2 POP POP SWAP3 SWAP2 POP POP JUMP JUMPDEST PUSH1 0x0 PUSH1 0xC0 DUP3 DUP5 SUB SLT ISZERO PUSH2 0x2420 JUMPI PUSH2 0x241F PUSH2 0x21D2 JUMP JUMPDEST JUMPDEST PUSH2 0x242A PUSH1 0xC0 PUSH2 0x1A9D JUMP JUMPDEST SWAP1 POP PUSH1 0x0 DUP3 ADD CALLDATALOAD PUSH8 0xFFFFFFFFFFFFFFFF DUP2 GT ISZERO PUSH2 0x244A JUMPI PUSH2 0x2449 PUSH2 0x21D7 JUMP JUMPDEST JUMPDEST PUSH2 0x2456 DUP5 DUP3 DUP6 ADD PUSH2 0x1B3A JUMP JUMPDEST PUSH1 0x0 DUP4 ADD MSTORE POP PUSH1 0x20 DUP3 ADD CALLDATALOAD PUSH8 0xFFFFFFFFFFFFFFFF DUP2 GT ISZERO PUSH2 0x247A JUMPI PUSH2 0x2479 PUSH2 0x21D7 JUMP JUMPDEST JUMPDEST PUSH2 0x2486 DUP5 DUP3 DUP6 ADD PUSH2 0x1B3A JUMP JUMPDEST PUSH1 0x20 DUP4 ADD MSTORE POP PUSH1 0x40 DUP3 ADD CALLDATALOAD PUSH8 0xFFFFFFFFFFFFFFFF DUP2 GT ISZERO PUSH2 0x24AA JUMPI PUSH2 0x24A9 PUSH2 0x21D7 JUMP JUMPDEST JUMPDEST PUSH2 0x24B6 DUP5 DUP3 DUP6 ADD PUSH2 0x1B3A JUMP JUMPDEST PUSH1 0x40 DUP4 ADD MSTORE POP PUSH1 0x60 DUP3 ADD CALLDATALOAD PUSH8 0xFFFFFFFFFFFFFFFF DUP2 GT ISZERO PUSH2 0x24DA JUMPI PUSH2 0x24D9 PUSH2 0x21D7 JUMP JUMPDEST JUMPDEST PUSH2 0x24E6 DUP5 DUP3 DUP6 ADD PUSH2 0x1B3A JUMP JUMPDEST PUSH1 0x60 DUP4 ADD MSTORE POP PUSH1 0x80 DUP3 ADD CALLDATALOAD PUSH8 0xFFFFFFFFFFFFFFFF DUP2 GT ISZERO PUSH2 0x250A JUMPI PUSH2 0x2509 PUSH2 0x21D7 JUMP JUMPDEST JUMPDEST PUSH2 0x2516 DUP5 DUP3 DUP6 ADD PUSH2 0x23DC JUMP JUMPDEST PUSH1 0x80 DUP4 ADD MSTORE POP PUSH1 0xA0 DUP3 ADD CALLDATALOAD PUSH8 0xFFFFFFFFFFFFFFFF DUP2 GT ISZERO PUSH2 0x253A JUMPI PUSH2 0x2539 PUSH2 0x21D7 JUMP JUMPDEST JUMPDEST PUSH2 0x2546 DUP5 DUP3 DUP6 ADD PUSH2 0x1B3A JUMP JUMPDEST PUSH1 0xA0 DUP4 ADD MSTORE POP SWAP3 SWAP2 POP POP JUMP JUMPDEST PUSH1 0x0 PUSH1 0xA0 DUP3 DUP5 SUB SLT ISZERO PUSH2 0x2568 JUMPI PUSH2 0x2567 PUSH2 0x21D2 JUMP JUMPDEST JUMPDEST PUSH2 0x2572 PUSH1 0xA0 PUSH2 0x1A9D JUMP JUMPDEST SWAP1 POP PUSH1 0x0 DUP3 ADD CALLDATALOAD PUSH8 0xFFFFFFFFFFFFFFFF DUP2 GT ISZERO PUSH2 0x2592 JUMPI PUSH2 0x2591 PUSH2 0x21D7 JUMP JUMPDEST JUMPDEST PUSH2 0x259E DUP5 DUP3 DUP6 ADD PUSH2 0x1B3A JUMP JUMPDEST PUSH1 0x0 DUP4 ADD MSTORE POP PUSH1 0x20 DUP3 ADD CALLDATALOAD PUSH8 0xFFFFFFFFFFFFFFFF DUP2 GT ISZERO PUSH2 0x25C2 JUMPI PUSH2 0x25C1 PUSH2 0x21D7 JUMP JUMPDEST JUMPDEST PUSH2 0x25CE DUP5 DUP3 DUP6 ADD PUSH2 0x1B3A JUMP JUMPDEST PUSH1 0x20 DUP4 ADD MSTORE POP PUSH1 0x40 DUP3 ADD CALLDATALOAD PUSH8 0xFFFFFFFFFFFFFFFF DUP2 GT ISZERO PUSH2 0x25F2 JUMPI PUSH2 0x25F1 PUSH2 0x21D7 JUMP JUMPDEST JUMPDEST PUSH2 0x25FE DUP5 DUP3 DUP6 ADD PUSH2 0x1B3A JUMP JUMPDEST PUSH1 0x40 DUP4 ADD MSTORE POP PUSH1 0x60 DUP3 ADD CALLDATALOAD PUSH8 0xFFFFFFFFFFFFFFFF DUP2 GT ISZERO PUSH2 0x2622 JUMPI PUSH2 0x2621 PUSH2 0x21D7 JUMP JUMPDEST JUMPDEST PUSH2 0x262E DUP5 DUP3 DUP6 ADD PUSH2 0x1B3A JUMP JUMPDEST PUSH1 0x60 DUP4 ADD MSTORE POP PUSH1 0x80 DUP3 ADD CALLDATALOAD PUSH8 0xFFFFFFFFFFFFFFFF DUP2 GT ISZERO PUSH2 0x2652 JUMPI PUSH2 0x2651 PUSH2 0x21D7 JUMP JUMPDEST JUMPDEST PUSH2 0x265E DUP5 DUP3 DUP6 ADD PUSH2 0x1B3A JUMP JUMPDEST PUSH1 0x80 DUP4 ADD MSTORE POP SWAP3 SWAP2 POP POP JUMP JUMPDEST PUSH2 0x2673 DUP2 PUSH2 0x1BB1 JUMP JUMPDEST DUP2 EQ PUSH2 0x267E JUMPI PUSH1 0x0 DUP1 REVERT JUMPDEST POP JUMP JUMPDEST PUSH1 0x0 DUP2 CALLDATALOAD SWAP1 POP PUSH2 0x2690 DUP2 PUSH2 0x266A JUMP JUMPDEST SWAP3 SWAP2 POP POP JUMP JUMPDEST PUSH1 0x0 PUSH1 0xA0 DUP3 DUP5 SUB SLT ISZERO PUSH2 0x26AC JUMPI PUSH2 0x26AB PUSH2 0x21D2 JUMP JUMPDEST JUMPDEST PUSH2 0x26B6 PUSH1 0xA0 PUSH2 0x1A9D JUMP JUMPDEST SWAP1 POP PUSH1 0x0 PUSH2 0x26C6 DUP5 DUP3 DUP6 ADD PUSH2 0x2681 JUMP JUMPDEST PUSH1 0x0 DUP4 ADD MSTORE POP PUSH1 0x20 PUSH2 0x26DA DUP5 DUP3 DUP6 ADD PUSH2 0x2681 JUMP JUMPDEST PUSH1 0x20 DUP4 ADD MSTORE POP PUSH1 0x40 PUSH2 0x26EE DUP5 DUP3 DUP6 ADD PUSH2 0x2681 JUMP JUMPDEST PUSH1 0x40 DUP4 ADD MSTORE POP PUSH1 0x60 PUSH2 0x2702 DUP5 DUP3 DUP6 ADD PUSH2 0x2681 JUMP JUMPDEST PUSH1 0x60 DUP4 ADD MSTORE POP PUSH1 0x80 PUSH2 0x2716 DUP5 DUP3 DUP6 ADD PUSH2 0x2681 JUMP JUMPDEST PUSH1 0x80 DUP4 ADD MSTORE POP SWAP3 SWAP2 POP POP JUMP JUMPDEST PUSH1 0x0 DUP1 PUSH1 0x0 DUP1 PUSH1 0x0 PUSH2 0x120 DUP7 DUP9 SUB SLT ISZERO PUSH2 0x273F JUMPI PUSH2 0x273E PUSH2 0x1A18 JUMP JUMPDEST JUMPDEST PUSH1 0x0 DUP7 ADD CALLDATALOAD PUSH8 0xFFFFFFFFFFFFFFFF DUP2 GT ISZERO PUSH2 0x275D JUMPI PUSH2 0x275C PUSH2 0x1A1D JUMP JUMPDEST JUMPDEST PUSH2 0x2769 DUP9 DUP3 DUP10 ADD PUSH2 0x1B3A JUMP JUMPDEST SWAP6 POP POP PUSH1 0x20 DUP7 ADD CALLDATALOAD PUSH8 0xFFFFFFFFFFFFFFFF DUP2 GT ISZERO PUSH2 0x278A JUMPI PUSH2 0x2789 PUSH2 0x1A1D JUMP JUMPDEST JUMPDEST PUSH2 0x2796 DUP9 DUP3 DUP10 ADD PUSH2 0x21DC JUMP JUMPDEST SWAP5 POP POP PUSH1 0x40 DUP7 ADD CALLDATALOAD PUSH8 0xFFFFFFFFFFFFFFFF DUP2 GT ISZERO PUSH2 0x27B7 JUMPI PUSH2 0x27B6 PUSH2 0x1A1D JUMP JUMPDEST JUMPDEST PUSH2 0x27C3 DUP9 DUP3 DUP10 ADD PUSH2 0x240A JUMP JUMPDEST SWAP4 POP POP PUSH1 0x60 DUP7 ADD CALLDATALOAD PUSH8 0xFFFFFFFFFFFFFFFF DUP2 GT ISZERO PUSH2 0x27E4 JUMPI PUSH2 0x27E3 PUSH2 0x1A1D JUMP JUMPDEST JUMPDEST PUSH2 0x27F0 DUP9 DUP3 DUP10 ADD PUSH2 0x2552 JUMP JUMPDEST SWAP3 POP POP PUSH1 0x80 PUSH2 0x2801 DUP9 DUP3 DUP10 ADD PUSH2 0x2696 JUMP JUMPDEST SWAP2 POP POP SWAP3 SWAP6 POP SWAP3 SWAP6 SWAP1 SWAP4 POP JUMP JUMPDEST PUSH1 0x0 DUP1 PUSH1 0x0 DUP1 PUSH1 0x0 DUP1 PUSH1 0xC0 DUP8 DUP10 SUB SLT ISZERO PUSH2 0x282B JUMPI PUSH2 0x282A PUSH2 0x1A18 JUMP JUMPDEST JUMPDEST PUSH1 0x0 DUP8 ADD CALLDATALOAD PUSH8 0xFFFFFFFFFFFFFFFF DUP2 GT ISZERO PUSH2 0x2849 JUMPI PUSH2 0x2848 PUSH2 0x1A1D JUMP JUMPDEST JUMPDEST PUSH2 0x2855 DUP10 DUP3 DUP11 ADD PUSH2 0x1B3A JUMP JUMPDEST SWAP7 POP POP PUSH1 0x20 PUSH2 0x2866 DUP10 DUP3 DUP11 ADD PUSH2 0x2681 JUMP JUMPDEST SWAP6 POP POP PUSH1 0x40 PUSH2 0x2877 DUP10 DUP3 DUP11 ADD PUSH2 0x2681 JUMP JUMPDEST SWAP5 POP POP PUSH1 0x60 PUSH2 0x2888 DUP10 DUP3 DUP11 ADD PUSH2 0x2681 JUMP JUMPDEST SWAP4 POP POP PUSH1 0x80 PUSH2 0x2899 DUP10 DUP3 DUP11 ADD PUSH2 0x2681 JUMP JUMPDEST SWAP3 POP POP PUSH1 0xA0 PUSH2 0x28AA DUP10 DUP3 DUP11 ADD PUSH2 0x2681 JUMP JUMPDEST SWAP2 POP POP SWAP3 SWAP6 POP SWAP3 SWAP6 POP SWAP3 SWAP6 JUMP JUMPDEST PUSH1 0x0 DUP2 SWAP1 POP SWAP3 SWAP2 POP POP JUMP JUMPDEST PUSH1 0x0 PUSH2 0x28CD DUP3 PUSH2 0x1E4C JUMP JUMPDEST PUSH2 0x28D7 DUP2 DUP6 PUSH2 0x28B7 JUMP JUMPDEST SWAP4 POP PUSH2 0x28E7 DUP2 DUP6 PUSH1 0x20 DUP7 ADD PUSH2 0x1E68 JUMP JUMPDEST DUP1 DUP5 ADD SWAP2 POP POP SWAP3 SWAP2 POP POP JUMP JUMPDEST PUSH1 0x0 PUSH2 0x28FF DUP3 DUP5 PUSH2 0x28C2 JUMP JUMPDEST SWAP2 POP DUP2 SWAP1 POP SWAP3 SWAP2 POP POP JUMP JUMPDEST PUSH1 0x0 DUP3 DUP3 MSTORE PUSH1 0x20 DUP3 ADD SWAP1 POP SWAP3 SWAP2 POP POP JUMP JUMPDEST PUSH32 0x5573657220646F6573206E6F742065786973742E000000000000000000000000 PUSH1 0x0 DUP3 ADD MSTORE POP JUMP JUMPDEST PUSH1 0x0 PUSH2 0x2951 PUSH1 0x14 DUP4 PUSH2 0x290A JUMP JUMPDEST SWAP2 POP PUSH2 0x295C DUP3 PUSH2 0x291B JUMP JUMPDEST PUSH1 0x20 DUP3 ADD SWAP1 POP SWAP2 SWAP1 POP JUMP JUMPDEST PUSH1 0x0 PUSH1 0x20 DUP3 ADD SWAP1 POP DUP2 DUP2 SUB PUSH1 0x0 DUP4 ADD MSTORE PUSH2 0x2980 DUP2 PUSH2 0x2944 JUMP JUMPDEST SWAP1 POP SWAP2 SWAP1 POP JUMP JUMPDEST PUSH32 0x4E487B7100000000000000000000000000000000000000000000000000000000 PUSH1 0x0 MSTORE PUSH1 0x22 PUSH1 0x4 MSTORE PUSH1 0x24 PUSH1 0x0 REVERT JUMPDEST PUSH1 0x0 PUSH1 0x2 DUP3 DIV SWAP1 POP PUSH1 0x1 DUP3 AND DUP1 PUSH2 0x29CE JUMPI PUSH1 0x7F DUP3 AND SWAP2 POP JUMPDEST PUSH1 0x20 DUP3 LT DUP2 SUB PUSH2 0x29E1 JUMPI PUSH2 0x29E0 PUSH2 0x2987 JUMP JUMPDEST JUMPDEST POP SWAP2 SWAP1 POP JUMP JUMPDEST PUSH32 0x557365726E616D6520616C7265616479206578697374732E0000000000000000 PUSH1 0x0 DUP3 ADD MSTORE POP JUMP JUMPDEST PUSH1 0x0 PUSH2 0x2A1D PUSH1 0x18 DUP4 PUSH2 0x290A JUMP JUMPDEST SWAP2 POP PUSH2 0x2A28 DUP3 PUSH2 0x29E7 JUMP JUMPDEST PUSH1 0x20 DUP3 ADD SWAP1 POP SWAP2 SWAP1 POP JUMP JUMPDEST PUSH1 0x0 PUSH1 0x20 DUP3 ADD SWAP1 POP DUP2 DUP2 SUB PUSH1 0x0 DUP4 ADD MSTORE PUSH2 0x2A4C DUP2 PUSH2 0x2A10 JUMP JUMPDEST SWAP1 POP SWAP2 SWAP1 POP JUMP JUMPDEST PUSH1 0x0 DUP2 SWAP1 POP DUP2 PUSH1 0x0 MSTORE PUSH1 0x20 PUSH1 0x0 KECCAK256 SWAP1 POP SWAP2 SWAP1 POP JUMP JUMPDEST PUSH1 0x0 PUSH1 0x20 PUSH1 0x1F DUP4 ADD DIV SWAP1 POP SWAP2 SWAP1 POP JUMP JUMPDEST PUSH1 0x0 DUP3 DUP3 SHL SWAP1 POP SWAP3 SWAP2 POP POP JUMP JUMPDEST PUSH1 0x0 PUSH1 0x8 DUP4 MUL PUSH2 0x2AB5 PUSH32 0xFFFFFFFFFFFFFFFFFFFFFFFFFFFFFFFFFFFFFFFFFFFFFFFFFFFFFFFFFFFFFFFF DUP3 PUSH2 0x2A78 JUMP JUMPDEST PUSH2 0x2ABF DUP7 DUP4 PUSH2 0x2A78 JUMP JUMPDEST SWAP6 POP DUP1 NOT DUP5 AND SWAP4 POP DUP1 DUP7 AND DUP5 OR SWAP3 POP POP POP SWAP4 SWAP3 POP POP POP JUMP JUMPDEST PUSH1 0x0 DUP2 SWAP1 POP SWAP2 SWAP1 POP JUMP JUMPDEST PUSH1 0x0 PUSH2 0x2AFC PUSH2 0x2AF7 PUSH2 0x2AF2 DUP5 PUSH2 0x1C4F JUMP JUMPDEST PUSH2 0x2AD7 JUMP JUMPDEST PUSH2 0x1C4F JUMP JUMPDEST SWAP1 POP SWAP2 SWAP1 POP JUMP JUMPDEST PUSH1 0x0 DUP2 SWAP1 POP SWAP2 SWAP1 POP JUMP JUMPDEST PUSH2 0x2B16 DUP4 PUSH2 0x2AE1 JUMP JUMPDEST PUSH2 0x2B2A PUSH2 0x2B22 DUP3 PUSH2 0x2B03 JUMP JUMPDEST DUP5 DUP5 SLOAD PUSH2 0x2A85 JUMP JUMPDEST DUP3 SSTORE POP POP POP POP JUMP JUMPDEST PUSH1 0x0 SWAP1 JUMP JUMPDEST PUSH2 0x2B3F PUSH2 0x2B32 JUMP JUMPDEST PUSH2 0x2B4A DUP2 DUP5 DUP5 PUSH2 0x2B0D JUMP JUMPDEST POP POP POP JUMP JUMPDEST JUMPDEST DUP2 DUP2 LT ISZERO PUSH2 0x2B6E JUMPI PUSH2 0x2B63 PUSH1 0x0 DUP3 PUSH2 0x2B37 JUMP JUMPDEST PUSH1 0x1 DUP2 ADD SWAP1 POP PUSH2 0x2B50 JUMP JUMPDEST POP POP JUMP JUMPDEST PUSH1 0x1F DUP3 GT ISZERO PUSH2 0x2BB3 JUMPI PUSH2 0x2B84 DUP2 PUSH2 0x2A53 JUMP JUMPDEST PUSH2 0x2B8D DUP5 PUSH2 0x2A68 JUMP JUMPDEST DUP2 ADD PUSH1 0x20 DUP6 LT ISZERO PUSH2 0x2B9C JUMPI DUP2 SWAP1 POP JUMPDEST PUSH2 0x2BB0 PUSH2 0x2BA8 DUP6 PUSH2 0x2A68 JUMP JUMPDEST DUP4 ADD DUP3 PUSH2 0x2B4F JUMP JUMPDEST POP POP JUMPDEST POP POP POP JUMP JUMPDEST PUSH1 0x0 DUP3 DUP3 SHR SWAP1 POP SWAP3 SWAP2 POP POP JUMP JUMPDEST PUSH1 0x0 PUSH2 0x2BD6 PUSH1 0x0 NOT DUP5 PUSH1 0x8 MUL PUSH2 0x2BB8 JUMP JUMPDEST NOT DUP1 DUP4 AND SWAP2 POP POP SWAP3 SWAP2 POP POP JUMP JUMPDEST PUSH1 0x0 PUSH2 0x2BEF DUP4 DUP4 PUSH2 0x2BC5 JUMP JUMPDEST SWAP2 POP DUP3 PUSH1 0x2 MUL DUP3 OR SWAP1 POP SWAP3 SWAP2 POP POP JUMP JUMPDEST PUSH2 0x2C08 DUP3 PUSH2 0x1E4C JUMP JUMPDEST PUSH8 0xFFFFFFFFFFFFFFFF DUP2 GT ISZERO PUSH2 0x2C21 JUMPI PUSH2 0x2C20 PUSH2 0x1A3D JUMP JUMPDEST JUMPDEST PUSH2 0x2C2B DUP3 SLOAD PUSH2 0x29B6 JUMP JUMPDEST PUSH2 0x2C36 DUP3 DUP3 DUP6 PUSH2 0x2B72 JUMP JUMPDEST PUSH1 0x0 PUSH1 0x20 SWAP1 POP PUSH1 0x1F DUP4 GT PUSH1 0x1 DUP2 EQ PUSH2 0x2C69 JUMPI PUSH1 0x0 DUP5 ISZERO PUSH2 0x2C57 JUMPI DUP3 DUP8 ADD MLOAD SWAP1 POP JUMPDEST PUSH2 0x2C61 DUP6 DUP3 PUSH2 0x2BE3 JUMP JUMPDEST DUP7 SSTORE POP PUSH2 0x2CC9 JUMP JUMPDEST PUSH1 0x1F NOT DUP5 AND PUSH2 0x2C77 DUP7 PUSH2 0x2A53 JUMP JUMPDEST PUSH1 0x0 JUMPDEST DUP3 DUP2 LT ISZERO PUSH2 0x2C9F JUMPI DUP5 DUP10 ADD MLOAD DUP3 SSTORE PUSH1 0x1 DUP3 ADD SWAP2 POP PUSH1 0x20 DUP6 ADD SWAP5 POP PUSH1 0x20 DUP2 ADD SWAP1 POP PUSH2 0x2C7A JUMP JUMPDEST DUP7 DUP4 LT ISZERO PUSH2 0x2CBC JUMPI DUP5 DUP10 ADD MLOAD PUSH2 0x2CB8 PUSH1 0x1F DUP10 AND DUP3 PUSH2 0x2BC5 JUMP JUMPDEST DUP4 SSTORE POP JUMPDEST PUSH1 0x1 PUSH1 0x2 DUP9 MUL ADD DUP9 SSTORE POP POP POP JUMPDEST POP POP POP POP POP POP JUMP INVALID LOG2 PUSH5 0x6970667358 0x22 SLT KECCAK256 JUMPI 0xFB JUMP CALLDATASIZE EXTCODECOPY 0x2D PUSH21 0x11D2B8A59795FB4E74BA272D9113BE611E3CA3420A PUSH22 0x51B85464736F6C634300081800330000000000000000 "},"methodIdentifiers":{"addJob(string,uint256)":"49110a6b","createUser(string,(string,string,string,string,string,string),(string,string,string,string,string[],string),(string,string,string,string,string),(bool,bool,bool,bool,bool))":"bb6228b0","editUser(string,(string,string,string,string,string,string),(string,string,string,string,string[],string),(string,string,string,string,string),(bool,bool,bool,bool,bool))":"f86a29c7","getJobs(string)":"4cb51da7","getUserByAddress(address)":"69c212f6","getUserByUsername(string)":"9f42af63","getVisibility(string)":"320ba8f7","setVisibility(string,bool,bool,bool,bool,bool)":"d1577cac"}}}}}