{
  "_format": "hh-sol-artifact-1",
  "contractName": "IdentiFi",
  "sourceName": "contracts/identiFi.sol",
  "abi": [
    {
      "inputs": [
        {
          "internalType": "string",
          "name": "username",
          "type": "string"
        },
        {
          "internalType": "uint256",
          "name": "jobId",
          "type": "uint256"
        }
      ],
      "name": "addJob",
      "outputs": [],
      "stateMutability": "nonpayable",
      "type": "function"
    },
    {
      "inputs": [
        {
          "internalType": "string",
          "name": "username",
          "type": "string"
        },
        {
          "components": [
            {
              "internalType": "string",
              "name": "firstName",
              "type": "string"
            },
            {
              "internalType": "string",
              "name": "lastName",
              "type": "string"
            },
            {
              "internalType": "string",
              "name": "email",
              "type": "string"
            },
            {
              "internalType": "string",
              "name": "homeAddress",
              "type": "string"
            },
            {
              "internalType": "string",
              "name": "dateOfBirth",
              "type": "string"
            },
            {
              "internalType": "string",
              "name": "phoneNumber",
              "type": "string"
            }
          ],
          "internalType": "struct IdentiFi.BasicInfo",
          "name": "basicInfo",
          "type": "tuple"
        },
        {
          "components": [
            {
              "internalType": "string",
              "name": "education",
              "type": "string"
            },
            {
              "internalType": "string",
              "name": "workHistory",
              "type": "string"
            },
            {
              "internalType": "string",
              "name": "jobTitle",
              "type": "string"
            },
            {
              "internalType": "string",
              "name": "info",
              "type": "string"
            },
            {
              "internalType": "string[]",
              "name": "skills",
              "type": "string[]"
            },
            {
              "internalType": "string",
              "name": "imageURL",
              "type": "string"
            }
          ],
          "internalType": "struct IdentiFi.ProfessionalInfo",
          "name": "professionalInfo",
          "type": "tuple"
        },
        {
          "components": [
            {
              "internalType": "string",
              "name": "x",
              "type": "string"
            },
            {
              "internalType": "string",
              "name": "instagram",
              "type": "string"
            },
            {
              "internalType": "string",
              "name": "tiktok",
              "type": "string"
            },
            {
              "internalType": "string",
              "name": "youtube",
              "type": "string"
            },
            {
              "internalType": "string",
              "name": "linkedin",
              "type": "string"
            }
          ],
          "internalType": "struct IdentiFi.SocialLinks",
          "name": "socialLinks",
          "type": "tuple"
        },
        {
          "components": [
            {
              "internalType": "bool",
              "name": "education",
              "type": "bool"
            },
            {
              "internalType": "bool",
              "name": "workHistory",
              "type": "bool"
            },
            {
              "internalType": "bool",
              "name": "phoneNumber",
              "type": "bool"
            },
            {
              "internalType": "bool",
              "name": "homeAddress",
              "type": "bool"
            },
            {
              "internalType": "bool",
              "name": "dateOfBirth",
              "type": "bool"
            }
          ],
          "internalType": "struct IdentiFi.Visibility",
          "name": "visibility",
          "type": "tuple"
        }
      ],
      "name": "createUser",
      "outputs": [],
      "stateMutability": "nonpayable",
      "type": "function"
    },
    {
      "inputs": [
        {
          "internalType": "string",
          "name": "username",
          "type": "string"
        },
        {
          "components": [
            {
              "internalType": "string",
              "name": "firstName",
              "type": "string"
            },
            {
              "internalType": "string",
              "name": "lastName",
              "type": "string"
            },
            {
              "internalType": "string",
              "name": "email",
              "type": "string"
            },
            {
              "internalType": "string",
              "name": "homeAddress",
              "type": "string"
            },
            {
              "internalType": "string",
              "name": "dateOfBirth",
              "type": "string"
            },
            {
              "internalType": "string",
              "name": "phoneNumber",
              "type": "string"
            }
          ],
          "internalType": "struct IdentiFi.BasicInfo",
          "name": "basicInfo",
          "type": "tuple"
        },
        {
          "components": [
            {
              "internalType": "string",
              "name": "education",
              "type": "string"
            },
            {
              "internalType": "string",
              "name": "workHistory",
              "type": "string"
            },
            {
              "internalType": "string",
              "name": "jobTitle",
              "type": "string"
            },
            {
              "internalType": "string",
              "name": "info",
              "type": "string"
            },
            {
              "internalType": "string[]",
              "name": "skills",
              "type": "string[]"
            },
            {
              "internalType": "string",
              "name": "imageURL",
              "type": "string"
            }
          ],
          "internalType": "struct IdentiFi.ProfessionalInfo",
          "name": "professionalInfo",
          "type": "tuple"
        },
        {
          "components": [
            {
              "internalType": "string",
              "name": "x",
              "type": "string"
            },
            {
              "internalType": "string",
              "name": "instagram",
              "type": "string"
            },
            {
              "internalType": "string",
              "name": "tiktok",
              "type": "string"
            },
            {
              "internalType": "string",
              "name": "youtube",
              "type": "string"
            },
            {
              "internalType": "string",
              "name": "linkedin",
              "type": "string"
            }
          ],
          "internalType": "struct IdentiFi.SocialLinks",
          "name": "socialLinks",
          "type": "tuple"
        },
        {
          "components": [
            {
              "internalType": "bool",
              "name": "education",
              "type": "bool"
            },
            {
              "internalType": "bool",
              "name": "workHistory",
              "type": "bool"
            },
            {
              "internalType": "bool",
              "name": "phoneNumber",
              "type": "bool"
            },
            {
              "internalType": "bool",
              "name": "homeAddress",
              "type": "bool"
            },
            {
              "internalType": "bool",
              "name": "dateOfBirth",
              "type": "bool"
            }
          ],
          "internalType": "struct IdentiFi.Visibility",
          "name": "visibility",
          "type": "tuple"
        }
      ],
      "name": "editUser",
      "outputs": [],
      "stateMutability": "nonpayable",
      "type": "function"
    },
    {
      "inputs": [
        {
          "internalType": "string",
          "name": "username",
          "type": "string"
        }
      ],
      "name": "getJobs",
      "outputs": [
        {
          "internalType": "uint256[]",
          "name": "",
          "type": "uint256[]"
        }
      ],
      "stateMutability": "view",
      "type": "function"
    },
    {
      "inputs": [
        {
          "internalType": "address",
          "name": "userAddress",
          "type": "address"
        }
      ],
      "name": "getUserByAddress",
      "outputs": [
        {
          "components": [
            {
              "internalType": "string",
              "name": "firstName",
              "type": "string"
            },
            {
              "internalType": "string",
              "name": "lastName",
              "type": "string"
            },
            {
              "internalType": "string",
              "name": "email",
              "type": "string"
            },
            {
              "internalType": "string",
              "name": "homeAddress",
              "type": "string"
            },
            {
              "internalType": "string",
              "name": "dateOfBirth",
              "type": "string"
            },
            {
              "internalType": "string",
              "name": "phoneNumber",
              "type": "string"
            }
          ],
          "internalType": "struct IdentiFi.BasicInfo",
          "name": "basicInfo",
          "type": "tuple"
        },
        {
          "components": [
            {
              "internalType": "string",
              "name": "education",
              "type": "string"
            },
            {
              "internalType": "string",
              "name": "workHistory",
              "type": "string"
            },
            {
              "internalType": "string",
              "name": "jobTitle",
              "type": "string"
            },
            {
              "internalType": "string",
              "name": "info",
              "type": "string"
            },
            {
              "internalType": "string[]",
              "name": "skills",
              "type": "string[]"
            },
            {
              "internalType": "string",
              "name": "imageURL",
              "type": "string"
            }
          ],
          "internalType": "struct IdentiFi.ProfessionalInfo",
          "name": "professionalInfo",
          "type": "tuple"
        },
        {
          "components": [
            {
              "internalType": "string",
              "name": "x",
              "type": "string"
            },
            {
              "internalType": "string",
              "name": "instagram",
              "type": "string"
            },
            {
              "internalType": "string",
              "name": "tiktok",
              "type": "string"
            },
            {
              "internalType": "string",
              "name": "youtube",
              "type": "string"
            },
            {
              "internalType": "string",
              "name": "linkedin",
              "type": "string"
            }
          ],
          "internalType": "struct IdentiFi.SocialLinks",
          "name": "socialLinks",
          "type": "tuple"
        },
        {
          "components": [
            {
              "internalType": "bool",
              "name": "education",
              "type": "bool"
            },
            {
              "internalType": "bool",
              "name": "workHistory",
              "type": "bool"
            },
            {
              "internalType": "bool",
              "name": "phoneNumber",
              "type": "bool"
            },
            {
              "internalType": "bool",
              "name": "homeAddress",
              "type": "bool"
            },
            {
              "internalType": "bool",
              "name": "dateOfBirth",
              "type": "bool"
            }
          ],
          "internalType": "struct IdentiFi.Visibility",
          "name": "visibility",
          "type": "tuple"
        }
      ],
      "stateMutability": "view",
      "type": "function"
    },
    {
      "inputs": [
        {
          "internalType": "string",
          "name": "username",
          "type": "string"
        }
      ],
      "name": "getUserByUsername",
      "outputs": [
        {
          "components": [
            {
              "internalType": "string",
              "name": "firstName",
              "type": "string"
            },
            {
              "internalType": "string",
              "name": "lastName",
              "type": "string"
            },
            {
              "internalType": "string",
              "name": "email",
              "type": "string"
            },
            {
              "internalType": "string",
              "name": "homeAddress",
              "type": "string"
            },
            {
              "internalType": "string",
              "name": "dateOfBirth",
              "type": "string"
            },
            {
              "internalType": "string",
              "name": "phoneNumber",
              "type": "string"
            }
          ],
          "internalType": "struct IdentiFi.BasicInfo",
          "name": "basicInfo",
          "type": "tuple"
        },
        {
          "components": [
            {
              "internalType": "string",
              "name": "education",
              "type": "string"
            },
            {
              "internalType": "string",
              "name": "workHistory",
              "type": "string"
            },
            {
              "internalType": "string",
              "name": "jobTitle",
              "type": "string"
            },
            {
              "internalType": "string",
              "name": "info",
              "type": "string"
            },
            {
              "internalType": "string[]",
              "name": "skills",
              "type": "string[]"
            },
            {
              "internalType": "string",
              "name": "imageURL",
              "type": "string"
            }
          ],
          "internalType": "struct IdentiFi.ProfessionalInfo",
          "name": "professionalInfo",
          "type": "tuple"
        },
        {
          "components": [
            {
              "internalType": "string",
              "name": "x",
              "type": "string"
            },
            {
              "internalType": "string",
              "name": "instagram",
              "type": "string"
            },
            {
              "internalType": "string",
              "name": "tiktok",
              "type": "string"
            },
            {
              "internalType": "string",
              "name": "youtube",
              "type": "string"
            },
            {
              "internalType": "string",
              "name": "linkedin",
              "type": "string"
            }
          ],
          "internalType": "struct IdentiFi.SocialLinks",
          "name": "socialLinks",
          "type": "tuple"
        },
        {
          "components": [
            {
              "internalType": "bool",
              "name": "education",
              "type": "bool"
            },
            {
              "internalType": "bool",
              "name": "workHistory",
              "type": "bool"
            },
            {
              "internalType": "bool",
              "name": "phoneNumber",
              "type": "bool"
            },
            {
              "internalType": "bool",
              "name": "homeAddress",
              "type": "bool"
            },
            {
              "internalType": "bool",
              "name": "dateOfBirth",
              "type": "bool"
            }
          ],
          "internalType": "struct IdentiFi.Visibility",
          "name": "visibility",
          "type": "tuple"
        }
      ],
      "stateMutability": "view",
      "type": "function"
    },
    {
      "inputs": [
        {
          "internalType": "string",
          "name": "username",
          "type": "string"
        }
      ],
      "name": "getVisibility",
      "outputs": [
        {
          "components": [
            {
              "internalType": "bool",
              "name": "education",
              "type": "bool"
            },
            {
              "internalType": "bool",
              "name": "workHistory",
              "type": "bool"
            },
            {
              "internalType": "bool",
              "name": "phoneNumber",
              "type": "bool"
            },
            {
              "internalType": "bool",
              "name": "homeAddress",
              "type": "bool"
            },
            {
              "internalType": "bool",
              "name": "dateOfBirth",
              "type": "bool"
            }
          ],
          "internalType": "struct IdentiFi.Visibility",
          "name": "",
          "type": "tuple"
        }
      ],
      "stateMutability": "view",
      "type": "function"
    },
    {
      "inputs": [
        {
          "internalType": "string",
          "name": "username",
          "type": "string"
        },
        {
          "internalType": "bool",
          "name": "education",
          "type": "bool"
        },
        {
          "internalType": "bool",
          "name": "workHistory",
          "type": "bool"
        },
        {
          "internalType": "bool",
          "name": "phoneNumber",
          "type": "bool"
        },
        {
          "internalType": "bool",
          "name": "homeAddress",
          "type": "bool"
        },
        {
          "internalType": "bool",
          "name": "dateOfBirth",
          "type": "bool"
        }
      ],
      "name": "setVisibility",
      "outputs": [],
      "stateMutability": "nonpayable",
      "type": "function"
    }
  ],
  "bytecode": "0x608060405234801561001057600080fd5b50612d07806100206000396000f3fe608060405234801561001057600080fd5b50600436106100885760003560e01c80639f42af631161005b5780639f42af631461013c578063bb6228b01461016f578063d1577cac1461018b578063f86a29c7146101a757610088565b8063320ba8f71461008d57806349110a6b146100bd5780634cb51da7146100d957806369c212f614610109575b600080fd5b6100a760048036038101906100a29190611b68565b6101c3565b6040516100b49190611c34565b60405180910390f35b6100d760048036038101906100d29190611c85565b6102f3565b005b6100f360048036038101906100ee9190611b68565b6103ad565b6040516101009190611d9f565b60405180910390f35b610123600480360381019061011e9190611e1f565b610494565b6040516101339493929190612177565b60405180910390f35b61015660048036038101906101519190611b68565b610599565b6040516101669493929190612177565b60405180910390f35b61018960048036038101906101849190612722565b611102565b005b6101a560048036038101906101a0919061280e565b611471565b005b6101c160048036038101906101bc9190612722565b6115a4565b005b6101cb611860565b6000826040516101db91906128f3565b908152602001604051809103902060120160009054906101000a900460ff16610239576040517f08c379a000000000000000000000000000000000000000000000000000000000815260040161023090612967565b60405180910390fd5b60008260405161024991906128f3565b90815260200160405180910390206014016040518060a00160405290816000820160009054906101000a900460ff161515151581526020016000820160019054906101000a900460ff161515151581526020016000820160029054906101000a900460ff161515151581526020016000820160039054906101000a900460ff161515151581526020016000820160049054906101000a900460ff1615151515815250509050919050565b60008260405161030391906128f3565b908152602001604051809103902060120160009054906101000a900460ff16610361576040517f08c379a000000000000000000000000000000000000000000000000000000000815260040161035890612967565b60405180910390fd5b60008260405161037191906128f3565b90815260200160405180910390206013018190806001815401808255809150506001900390600052602060002001600090919091909150555050565b60606000826040516103bf91906128f3565b908152602001604051809103902060120160009054906101000a900460ff1661041d576040517f08c379a000000000000000000000000000000000000000000000000000000000815260040161041490612967565b60405180910390fd5b60008260405161042d91906128f3565b908152602001604051809103902060130180548060200260200160405190810160405280929190818152602001828054801561048857602002820191906000526020600020905b815481526020019060010190808311610474575b50505050509050919050565b61049c611899565b6104a46118cf565b6104ac611905565b6104b4611860565b6000600160008773ffffffffffffffffffffffffffffffffffffffff1673ffffffffffffffffffffffffffffffffffffffff1681526020019081526020016000208054610500906129b6565b80601f016020809104026020016040519081016040528092919081815260200182805461052c906129b6565b80156105795780601f1061054e57610100808354040283529160200191610579565b820191906000526020600020905b81548152906001019060200180831161055c57829003601f168201915b5050505050905061058981610599565b9450945094509450509193509193565b6105a1611899565b6105a96118cf565b6105b1611905565b6105b9611860565b6000856040516105c991906128f3565b908152602001604051809103902060120160009054906101000a900460ff16610627576040517f08c379a000000000000000000000000000000000000000000000000000000000815260040161061e90612967565b60405180910390fd5b6000808660405161063891906128f3565b908152602001604051809103902090506040518060c00160405280826000018054610662906129b6565b80601f016020809104026020016040519081016040528092919081815260200182805461068e906129b6565b80156106db5780601f106106b0576101008083540402835291602001916106db565b820191906000526020600020905b8154815290600101906020018083116106be57829003601f168201915b505050505081526020018260010180546106f4906129b6565b80601f0160208091040260200160405190810160405280929190818152602001828054610720906129b6565b801561076d5780601f106107425761010080835404028352916020019161076d565b820191906000526020600020905b81548152906001019060200180831161075057829003601f168201915b50505050508152602001826003018054610786906129b6565b80601f01602080910402602001604051908101604052809291908181526020018280546107b2906129b6565b80156107ff5780601f106107d4576101008083540402835291602001916107ff565b820191906000526020600020905b8154815290600101906020018083116107e257829003601f168201915b50505050508152602001826004018054610818906129b6565b80601f0160208091040260200160405190810160405280929190818152602001828054610844906129b6565b80156108915780601f1061086657610100808354040283529160200191610891565b820191906000526020600020905b81548152906001019060200180831161087457829003601f168201915b505050505081526020018260050180546108aa906129b6565b80601f01602080910402602001604051908101604052809291908181526020018280546108d6906129b6565b80156109235780601f106108f857610100808354040283529160200191610923565b820191906000526020600020905b81548152906001019060200180831161090657829003601f168201915b5050505050815260200182600801805461093c906129b6565b80601f0160208091040260200160405190810160405280929190818152602001828054610968906129b6565b80156109b55780601f1061098a576101008083540402835291602001916109b5565b820191906000526020600020905b81548152906001019060200180831161099857829003601f168201915b505050505081525094506040518060c001604052808260060180546109d9906129b6565b80601f0160208091040260200160405190810160405280929190818152602001828054610a05906129b6565b8015610a525780601f10610a2757610100808354040283529160200191610a52565b820191906000526020600020905b815481529060010190602001808311610a3557829003601f168201915b50505050508152602001826007018054610a6b906129b6565b80601f0160208091040260200160405190810160405280929190818152602001828054610a97906129b6565b8015610ae45780601f10610ab957610100808354040283529160200191610ae4565b820191906000526020600020905b815481529060010190602001808311610ac757829003601f168201915b50505050508152602001826009018054610afd906129b6565b80601f0160208091040260200160405190810160405280929190818152602001828054610b29906129b6565b8015610b765780601f10610b4b57610100808354040283529160200191610b76565b820191906000526020600020905b815481529060010190602001808311610b5957829003601f168201915b5050505050815260200182600f018054610b8f906129b6565b80601f0160208091040260200160405190810160405280929190818152602001828054610bbb906129b6565b8015610c085780601f10610bdd57610100808354040283529160200191610c08565b820191906000526020600020905b815481529060010190602001808311610beb57829003601f168201915b5050505050815260200182601001805480602002602001604051908101604052809291908181526020016000905b82821015610ce2578382906000526020600020018054610c55906129b6565b80601f0160208091040260200160405190810160405280929190818152602001828054610c81906129b6565b8015610cce5780601f10610ca357610100808354040283529160200191610cce565b820191906000526020600020905b815481529060010190602001808311610cb157829003601f168201915b505050505081526020019060010190610c36565b505050508152602001826011018054610cfa906129b6565b80601f0160208091040260200160405190810160405280929190818152602001828054610d26906129b6565b8015610d735780601f10610d4857610100808354040283529160200191610d73565b820191906000526020600020905b815481529060010190602001808311610d5657829003601f168201915b505050505081525093506040518060a0016040528082600a018054610d97906129b6565b80601f0160208091040260200160405190810160405280929190818152602001828054610dc3906129b6565b8015610e105780601f10610de557610100808354040283529160200191610e10565b820191906000526020600020905b815481529060010190602001808311610df357829003601f168201915b5050505050815260200182600b018054610e29906129b6565b80601f0160208091040260200160405190810160405280929190818152602001828054610e55906129b6565b8015610ea25780601f10610e7757610100808354040283529160200191610ea2565b820191906000526020600020905b815481529060010190602001808311610e8557829003601f168201915b5050505050815260200182600c018054610ebb906129b6565b80601f0160208091040260200160405190810160405280929190818152602001828054610ee7906129b6565b8015610f345780601f10610f0957610100808354040283529160200191610f34565b820191906000526020600020905b815481529060010190602001808311610f1757829003601f168201915b5050505050815260200182600d018054610f4d906129b6565b80601f0160208091040260200160405190810160405280929190818152602001828054610f79906129b6565b8015610fc65780601f10610f9b57610100808354040283529160200191610fc6565b820191906000526020600020905b815481529060010190602001808311610fa957829003601f168201915b5050505050815260200182600e018054610fdf906129b6565b80601f016020809104026020016040519081016040528092919081815260200182805461100b906129b6565b80156110585780601f1061102d57610100808354040283529160200191611058565b820191906000526020600020905b81548152906001019060200180831161103b57829003601f168201915b50505050508152509250806014016040518060a00160405290816000820160009054906101000a900460ff161515151581526020016000820160019054906101000a900460ff161515151581526020016000820160029054906101000a900460ff161515151581526020016000820160039054906101000a900460ff161515151581526020016000820160049054906101000a900460ff1615151515815250509150509193509193565b8460028160405161111391906128f3565b908152602001604051809103902060009054906101000a900460ff161561116f576040517f08c379a000000000000000000000000000000000000000000000000000000000815260040161116690612a33565b60405180910390fd5b6000808760405161118091906128f3565b9081526020016040518091039020905085600001518160000190816111a59190612bff565b5085602001518160010190816111bb9190612bff565b50868160020190816111cd9190612bff565b5085604001518160030190816111e39190612bff565b5085606001518160040190816111f99190612bff565b50856080015181600501908161120f9190612bff565b508560a001518160080190816112259190612bff565b50846000015181600601908161123b9190612bff565b5084602001518160070190816112519190612bff565b5084604001518160090190816112679190612bff565b50836000015181600a01908161127d9190612bff565b50836020015181600b0190816112939190612bff565b50836040015181600c0190816112a99190612bff565b50836060015181600d0190816112bf9190612bff565b50836080015181600e0190816112d59190612bff565b50846060015181600f0190816112eb9190612bff565b508460800151816010019080519060200190611308929190611934565b508460a0015181601101908161131e9190612bff565b5060018160120160006101000a81548160ff021916908315150217905550828160140160008201518160000160006101000a81548160ff02191690831515021790555060208201518160000160016101000a81548160ff02191690831515021790555060408201518160000160026101000a81548160ff02191690831515021790555060608201518160000160036101000a81548160ff02191690831515021790555060808201518160000160046101000a81548160ff02191690831515021790555090505060016002886040516113f691906128f3565b908152602001604051809103902060006101000a81548160ff02191690831515021790555086600160003373ffffffffffffffffffffffffffffffffffffffff1673ffffffffffffffffffffffffffffffffffffffff16815260200190815260200160002090816114679190612bff565b5050505050505050565b60008660405161148191906128f3565b908152602001604051809103902060120160009054906101000a900460ff166114df576040517f08c379a00000000000000000000000000000000000000000000000000000000081526004016114d690612967565b60405180910390fd5b600080876040516114f091906128f3565b90815260200160405180910390209050858160140160000160006101000a81548160ff021916908315150217905550848160140160000160016101000a81548160ff021916908315150217905550838160140160000160026101000a81548160ff021916908315150217905550828160140160000160036101000a81548160ff021916908315150217905550818160140160000160046101000a81548160ff02191690831515021790555050505050505050565b6000856040516115b491906128f3565b908152602001604051809103902060120160009054906101000a900460ff16611612576040517f08c379a000000000000000000000000000000000000000000000000000000000815260040161160990612967565b60405180910390fd5b6000808660405161162391906128f3565b9081526020016040518091039020905084600001518160000190816116489190612bff565b50846020015181600101908161165e9190612bff565b5084604001518160030190816116749190612bff565b50846060015181600401908161168a9190612bff565b5084608001518160050190816116a09190612bff565b508460a001518160080190816116b69190612bff565b5083600001518160060190816116cc9190612bff565b5083602001518160070190816116e29190612bff565b5083604001518160090190816116f89190612bff565b50826000015181600a01908161170e9190612bff565b50826020015181600b0190816117249190612bff565b50826040015181600c01908161173a9190612bff565b50826060015181600d0190816117509190612bff565b50826080015181600e0190816117669190612bff565b50836060015181600f01908161177c9190612bff565b508360800151816010019080519060200190611799929190611934565b508360a001518160110190816117af9190612bff565b50818160140160008201518160000160006101000a81548160ff02191690831515021790555060208201518160000160016101000a81548160ff02191690831515021790555060408201518160000160026101000a81548160ff02191690831515021790555060608201518160000160036101000a81548160ff02191690831515021790555060808201518160000160046101000a81548160ff021916908315150217905550905050505050505050565b6040518060a001604052806000151581526020016000151581526020016000151581526020016000151581526020016000151581525090565b6040518060c001604052806060815260200160608152602001606081526020016060815260200160608152602001606081525090565b6040518060c001604052806060815260200160608152602001606081526020016060815260200160608152602001606081525090565b6040518060a0016040528060608152602001606081526020016060815260200160608152602001606081525090565b82805482825590600052602060002090810192821561197c579160200282015b8281111561197b57825182908161196b9190612bff565b5091602001919060010190611954565b5b509050611989919061198d565b5090565b5b808211156119ad57600081816119a491906119b1565b5060010161198e565b5090565b5080546119bd906129b6565b6000825580601f106119cf57506119ee565b601f0160209004906000526020600020908101906119ed91906119f1565b5b50565b5b80821115611a0a5760008160009055506001016119f2565b5090565b6000604051905090565b600080fd5b600080fd5b600080fd5b600080fd5b6000601f19601f8301169050919050565b7f4e487b7100000000000000000000000000000000000000000000000000000000600052604160045260246000fd5b611a7582611a2c565b810181811067ffffffffffffffff82111715611a9457611a93611a3d565b5b80604052505050565b6000611aa7611a0e565b9050611ab38282611a6c565b919050565b600067ffffffffffffffff821115611ad357611ad2611a3d565b5b611adc82611a2c565b9050602081019050919050565b82818337600083830152505050565b6000611b0b611b0684611ab8565b611a9d565b905082815260208101848484011115611b2757611b26611a27565b5b611b32848285611ae9565b509392505050565b600082601f830112611b4f57611b4e611a22565b5b8135611b5f848260208601611af8565b91505092915050565b600060208284031215611b7e57611b7d611a18565b5b600082013567ffffffffffffffff811115611b9c57611b9b611a1d565b5b611ba884828501611b3a565b91505092915050565b60008115159050919050565b611bc681611bb1565b82525050565b60a082016000820151611be26000850182611bbd565b506020820151611bf56020850182611bbd565b506040820151611c086040850182611bbd565b506060820151611c1b6060850182611bbd565b506080820151611c2e6080850182611bbd565b50505050565b600060a082019050611c496000830184611bcc565b92915050565b6000819050919050565b611c6281611c4f565b8114611c6d57600080fd5b50565b600081359050611c7f81611c59565b92915050565b60008060408385031215611c9c57611c9b611a18565b5b600083013567ffffffffffffffff811115611cba57611cb9611a1d565b5b611cc685828601611b3a565b9250506020611cd785828601611c70565b9150509250929050565b600081519050919050565b600082825260208201905092915050565b6000819050602082019050919050565b611d1681611c4f565b82525050565b6000611d288383611d0d565b60208301905092915050565b6000602082019050919050565b6000611d4c82611ce1565b611d568185611cec565b9350611d6183611cfd565b8060005b83811015611d92578151611d798882611d1c565b9750611d8483611d34565b925050600181019050611d65565b5085935050505092915050565b60006020820190508181036000830152611db98184611d41565b905092915050565b600073ffffffffffffffffffffffffffffffffffffffff82169050919050565b6000611dec82611dc1565b9050919050565b611dfc81611de1565b8114611e0757600080fd5b50565b600081359050611e1981611df3565b92915050565b600060208284031215611e3557611e34611a18565b5b6000611e4384828501611e0a565b91505092915050565b600081519050919050565b600082825260208201905092915050565b60005b83811015611e86578082015181840152602081019050611e6b565b60008484015250505050565b6000611e9d82611e4c565b611ea78185611e57565b9350611eb7818560208601611e68565b611ec081611a2c565b840191505092915050565b600060c0830160008301518482036000860152611ee88282611e92565b91505060208301518482036020860152611f028282611e92565b91505060408301518482036040860152611f1c8282611e92565b91505060608301518482036060860152611f368282611e92565b91505060808301518482036080860152611f508282611e92565b91505060a083015184820360a0860152611f6a8282611e92565b9150508091505092915050565b600081519050919050565b600082825260208201905092915050565b6000819050602082019050919050565b6000611faf8383611e92565b905092915050565b6000602082019050919050565b6000611fcf82611f77565b611fd98185611f82565b935083602082028501611feb85611f93565b8060005b8581101561202757848403895281516120088582611fa3565b945061201383611fb7565b925060208a01995050600181019050611fef565b50829750879550505050505092915050565b600060c08301600083015184820360008601526120568282611e92565b915050602083015184820360208601526120708282611e92565b9150506040830151848203604086015261208a8282611e92565b915050606083015184820360608601526120a48282611e92565b915050608083015184820360808601526120be8282611fc4565b91505060a083015184820360a08601526120d88282611e92565b9150508091505092915050565b600060a08301600083015184820360008601526121028282611e92565b9150506020830151848203602086015261211c8282611e92565b915050604083015184820360408601526121368282611e92565b915050606083015184820360608601526121508282611e92565b9150506080830151848203608086015261216a8282611e92565b9150508091505092915050565b60006101008201905081810360008301526121928187611ecb565b905081810360208301526121a68186612039565b905081810360408301526121ba81856120e5565b90506121c96060830184611bcc565b95945050505050565b600080fd5b600080fd5b600060c082840312156121f2576121f16121d2565b5b6121fc60c0611a9d565b9050600082013567ffffffffffffffff81111561221c5761221b6121d7565b5b61222884828501611b3a565b600083015250602082013567ffffffffffffffff81111561224c5761224b6121d7565b5b61225884828501611b3a565b602083015250604082013567ffffffffffffffff81111561227c5761227b6121d7565b5b61228884828501611b3a565b604083015250606082013567ffffffffffffffff8111156122ac576122ab6121d7565b5b6122b884828501611b3a565b606083015250608082013567ffffffffffffffff8111156122dc576122db6121d7565b5b6122e884828501611b3a565b60808301525060a082013567ffffffffffffffff81111561230c5761230b6121d7565b5b61231884828501611b3a565b60a08301525092915050565b600067ffffffffffffffff82111561233f5761233e611a3d565b5b602082029050602081019050919050565b600080fd5b600061236861236384612324565b611a9d565b9050808382526020820190506020840283018581111561238b5761238a612350565b5b835b818110156123d257803567ffffffffffffffff8111156123b0576123af611a22565b5b8086016123bd8982611b3a565b8552602085019450505060208101905061238d565b5050509392505050565b600082601f8301126123f1576123f0611a22565b5b8135612401848260208601612355565b91505092915050565b600060c082840312156124205761241f6121d2565b5b61242a60c0611a9d565b9050600082013567ffffffffffffffff81111561244a576124496121d7565b5b61245684828501611b3a565b600083015250602082013567ffffffffffffffff81111561247a576124796121d7565b5b61248684828501611b3a565b602083015250604082013567ffffffffffffffff8111156124aa576124a96121d7565b5b6124b684828501611b3a565b604083015250606082013567ffffffffffffffff8111156124da576124d96121d7565b5b6124e684828501611b3a565b606083015250608082013567ffffffffffffffff81111561250a576125096121d7565b5b612516848285016123dc565b60808301525060a082013567ffffffffffffffff81111561253a576125396121d7565b5b61254684828501611b3a565b60a08301525092915050565b600060a08284031215612568576125676121d2565b5b61257260a0611a9d565b9050600082013567ffffffffffffffff811115612592576125916121d7565b5b61259e84828501611b3a565b600083015250602082013567ffffffffffffffff8111156125c2576125c16121d7565b5b6125ce84828501611b3a565b602083015250604082013567ffffffffffffffff8111156125f2576125f16121d7565b5b6125fe84828501611b3a565b604083015250606082013567ffffffffffffffff811115612622576126216121d7565b5b61262e84828501611b3a565b606083015250608082013567ffffffffffffffff811115612652576126516121d7565b5b61265e84828501611b3a565b60808301525092915050565b61267381611bb1565b811461267e57600080fd5b50565b6000813590506126908161266a565b92915050565b600060a082840312156126ac576126ab6121d2565b5b6126b660a0611a9d565b905060006126c684828501612681565b60008301525060206126da84828501612681565b60208301525060406126ee84828501612681565b604083015250606061270284828501612681565b606083015250608061271684828501612681565b60808301525092915050565b6000806000806000610120868803121561273f5761273e611a18565b5b600086013567ffffffffffffffff81111561275d5761275c611a1d565b5b61276988828901611b3a565b955050602086013567ffffffffffffffff81111561278a57612789611a1d565b5b612796888289016121dc565b945050604086013567ffffffffffffffff8111156127b7576127b6611a1d565b5b6127c38882890161240a565b935050606086013567ffffffffffffffff8111156127e4576127e3611a1d565b5b6127f088828901612552565b925050608061280188828901612696565b9150509295509295909350565b60008060008060008060c0878903121561282b5761282a611a18565b5b600087013567ffffffffffffffff81111561284957612848611a1d565b5b61285589828a01611b3a565b965050602061286689828a01612681565b955050604061287789828a01612681565b945050606061288889828a01612681565b935050608061289989828a01612681565b92505060a06128aa89828a01612681565b9150509295509295509295565b600081905092915050565b60006128cd82611e4c565b6128d781856128b7565b93506128e7818560208601611e68565b80840191505092915050565b60006128ff82846128c2565b915081905092915050565b600082825260208201905092915050565b7f5573657220646f6573206e6f742065786973742e000000000000000000000000600082015250565b600061295160148361290a565b915061295c8261291b565b602082019050919050565b6000602082019050818103600083015261298081612944565b9050919050565b7f4e487b7100000000000000000000000000000000000000000000000000000000600052602260045260246000fd5b600060028204905060018216806129ce57607f821691505b6020821081036129e1576129e0612987565b5b50919050565b7f557365726e616d6520616c7265616479206578697374732e0000000000000000600082015250565b6000612a1d60188361290a565b9150612a28826129e7565b602082019050919050565b60006020820190508181036000830152612a4c81612a10565b9050919050565b60008190508160005260206000209050919050565b60006020601f8301049050919050565b600082821b905092915050565b600060088302612ab57fffffffffffffffffffffffffffffffffffffffffffffffffffffffffffffffff82612a78565b612abf8683612a78565b95508019841693508086168417925050509392505050565b6000819050919050565b6000612afc612af7612af284611c4f565b612ad7565b611c4f565b9050919050565b6000819050919050565b612b1683612ae1565b612b2a612b2282612b03565b848454612a85565b825550505050565b600090565b612b3f612b32565b612b4a818484612b0d565b505050565b5b81811015612b6e57612b63600082612b37565b600181019050612b50565b5050565b601f821115612bb357612b8481612a53565b612b8d84612a68565b81016020851015612b9c578190505b612bb0612ba885612a68565b830182612b4f565b50505b505050565b600082821c905092915050565b6000612bd660001984600802612bb8565b1980831691505092915050565b6000612bef8383612bc5565b9150826002028217905092915050565b612c0882611e4c565b67ffffffffffffffff811115612c2157612c20611a3d565b5b612c2b82546129b6565b612c36828285612b72565b600060209050601f831160018114612c695760008415612c57578287015190505b612c618582612be3565b865550612cc9565b601f198416612c7786612a53565b60005b82811015612c9f57848901518255600182019150602085019450602081019050612c7a565b86831015612cbc5784890151612cb8601f891682612bc5565b8355505b6001600288020188555050505b50505050505056fea264697066735822122057fb56363c2d7411d2b8a59795fb4e74ba272d9113be611e3ca3420a7551b85464736f6c63430008180033",
  "linkReferences": {},
  "deployedLinkReferences": {}
}